:020000042000DA
:1000000000980020A1000020A9000020C1000020CD
:1000100000000000000000000000000000000000E0
:10002000000000000000000000000000D9000020D7
:100030000000000000000000F100002055460020F4
:100040002F1C0020053103000D3103009F1C0020F0
:10005000B11C00208D310300EB1C0020F31C00209C
:10006000F5000020FD1300200B1D0020AD31030022
:10007000578102005B1500204B1B02004B1B020046
:100080004B1B0200154600204B1B0200F500002010
:10009000F5000020F5000020F5000020F50000200C
:1000A000154880471548004704207146084203D090
:1000B000EFF3098012490847EFF308801049084719
:1000C00004207146084203D0EFF309800D49084728
:1000D000EFF308800B49084704207146084203D01B
:1000E000EFF3098008490847EFF3088006490847FD
:1000F000FEE7FEE7FEE70000F9030020E50300202D
:10010000DD090020C50800209B040020000000003D
:1001100000000000000000000000000000000000DF
:1001200000000000000000000000000000000000CF
:1001300000000000000000000000000000000000BF
:1001400000000000000000000000000000000000AF
:10015000000000000000000000000000000000009F
:10016000320000002D0500208F0E00206D2C002095
:10017000000000000000000063800200BD8002005B
:100180009D0C0020FB8002001981020035810200D5
:100190005D810200011C002013050020890C002055
:1001A000930C002000000000000000003F00000051
:1001B000F48B0020000400002C10080060010000F7
:1001C00068070800B8080000981108000C02000039
:1001D000000000002000000048000000580000005F
:1001E0006800000004010000160100002801000062
:1001F0002E010000201A00008E1E000001000000E9
:1002000088130000190F0020E9600200FD9302002E
:100210003F16002019280300A5740200811A00204F
:1002200003000000D5200200812C00200400000003
:10023000D74902000F490200831D020063910200AA
:10024000B7910200BF910200078202007182020092
:10025000246E0020AD8302009384020041850200D9
:1002600015860200378602005F860200758602004E
:10027000F9870200258902005D8A0200D38C020002
:10028000098D02000F900200438D0200278E0200AC
:10029000F98E0200478F02001B0C0020D58F020050
:1002A00049510200775102002F5202001000000055
:1002B00020030000803E000000000000000000005D
:1002C000504600030003983A6400F401B80B000C98
:1002D000B80B120030003000CD009A01120024004B
:1002E00030006400B0001800280012001200D0078F
:1002F0000000FFFF00000000000000000000000000
:100300001F000002444131343538302D30310000B7
:1003100000000000000000000000000000000000DD
:1003200000000000000000000000000000000000CD
:1003300000000000000000000000000000000000BD
:10034000FFFF010000C201000000000000000000EB
:100350000000F4010100011B0A061AFFD200021579
:10036000585CDE931B0142CC9A1325009BEDC65EC0
:1003700000010002C5000000000009FF00605257A4
:100380002D424C450000000000000000000000006D
:10039000000000000000000000004B425F424C459E
:1003A000000000000000000000000000000000004D
:1003B000000000000000000000000000000000003D
:1003C000000000000000000000000000000000002D
:1003D0000000000000000000123456CAEA80D00776
:1003E000064064320348854606F04CFA0048004750
:1003F000C7200200009800200F4906200880FF2037
:100400000E49013008600E4988683E2290432E3024
:1004100088600022052000070280018A0F231B024A
:100420001943018201210748C90404C1401E002864
:10043000FBDA62B6704700000034005080E100E053
:1004400000330050FF0B00008307FF22DB0E9A40B1
:100450008907090E994000280BDA0007000F0838B9
:100460008308EC489B001818C36993430B43C3618E
:1004700070478308E8489B001B181868904308439E
:100480001860704702890889E449101A80B28842CE
:1004900001D9012070470020704781692039897F88
:1004A000082904D2DE4A8900515881617047FEE76D
:1004B00010B5DD48DB490161DC494161DC498161FE
:1004C000DC49C161DC490162DC494162DC4981628D
:1004D000DC49C162DC490163DC494163DC49816379
:1004E000DC49C163DA49D0485C3140300160DA4907
:1004F0004160DA498160DA49C160C8160124D949EE
:10050000E4060C600021FFF79FFFD64880380460A6
:1005100010BD10B5D4490020086000F079FB01201F
:100520008007016B49004908016310BD1CB5CF4825
:1005300001270770CE480821018006F0B5F900F0C8
:100540007DFD00F094FACB4801780170CA4801782B
:100550000170012006F0AEF93C020D202146800119
:1005600006F0AEF901F0A8FA00F0FAFB00F0D8FAB4
:10057000042000F0FCF8072000F0F9F80A2000F051
:10058000F6F8062000F0F3F80B2000F0F0F8012058
:1005900000F0EDF8022000F0EAF8002000F0E7F8A3
:1005A000B648006806F092F9A00501682143016091
:1005B00000F094F90121C81EFFF746FF02F0ECFDA0
:1005C000FFF7A7FFA22005242407E082AC4841885A
:1005D000E0229143A0314180012006F07DF90226FE
:1005E00004252089000621D501208007006B000426
:1005F0001CD406F077F9C00718D1042006F078F96A
:10060000019006F07BF90198002809D000200190A4
:10061000042101A806F078F9002801D000F00BFBB6
:1006200000F0ACF80028DCD105F06BFE05F082F993
:1006300003F08BFB002807D092480078012803D1F3
:1006400000F0ACF90028CCD172B68F4800780028B1
:1006500001D005F06FF901F055FA694608700428D9
:1006600006D002280CD003280AD001287CD07CE0D8
:1006700086480078012802D00320087000E00E7040
:10068000208A284320828248C069012808781FD91F
:1006900003280ED106F03EF900280AD006F040F9F2
:1006A000002806D0032006F041F9002801D079483F
:1006B00000E06846067078480078032811D00228C8
:1006C0000FD068460278022A0ED0032A0CD031E0FF
:1006D0000328EED106F02AF90028EAD06D48077009
:1006E000E9E76846077036E04A4801692943016135
:1006F000608A202188436082208A30432082608A79
:10070000022A1CD0A84360827F2320889B0180217D
:10071000084320800020401CC0B20A28FBD3608A16
:100720001021084360825D485B1E43612088802160
:1007300088432080022A08D0032A06D00BE02843F1
:100740006082608A1021884360824D484188FF2280
:1007500001329143418030BF00F04FFA2D480169CA
:10076000A943016101E0FFE730BF62B639E7C10686
:10077000C90E012088404A4908607047F8B54948C9
:100780000025494E057030782C46002802D004F030
:100790005CFC34703B4E3078012801D103F006FB3D
:1007A000424F3878002805D03078012801D104F074
:1007B0005BFA3C703E4E3078002803D0082004F0ED
:1007C00053FA3470012006F093F8002813D1394809
:1007D000006800280FD004F002F800280BD036483B
:1007E0008088002807D003F0EFFF002803D003F033
:1007F000DDFA01250BE0314E3078002807D005F0F6
:1008000092F9002802D0092004F02EFA347028460C
:10081000F8BD000000ED00E000E400E030750000ED
:10082000046E0020942703000084004062B600DFBD
:1008300028A30200704701DF1CCA0200F8BD02DFD6
:1008400040CB0200F5E703DF20D6020000BF00BF67
:10085000BC330200F8BD05DFF8BD06DFEC0C030079
:1008600070BD07DF80E100E08C030800B0130800D2
:100870000033005000000800201A080004900020F7
:1008800020000050FC150800CD790020540208001B
:10089000E0010020C4060800841608000080004023
:1008A00080E200E0F915080004160800D579002060
:1008B000D67900207C1408001E050800F8150800F1
:1008C0007047000003490120088003490820488040
:1008D000FEE7000000310050003300503B48017833
:1008E000002902D0802141707047394900200870EA
:1008F0003849C870704735480178002902D08121F5
:10090000417070473249012008703249C870704701
:100910002E480178002902D08221417070472C496D
:10092000022008702B490120C87070472748817841
:10093000002904D0491E0906090E817017D142789A
:100940000021002A04D09207920F0270417004E047
:100950000278002A01D0521E02701206120E017097
:1009600005D0012A02D0022A01D1D1E7C3E770479E
:1009700010B5164CA078401CA0702078002805D136
:1009800005F0DAFF421CFFF7A9FF227010BD0F49E6
:100990000020C87070470D48C07870470020EFF302
:1009A0001081012282F31088052212071289120693
:1009B00005D40948028901231A43028118460029F7
:1009C00000D0012181F3108870470000B1130800A6
:1009D00054020800C6060800003300500520000736
:1009E000018A042211430182018A022211430182F9
:1009F0000189402211430181054A01211160418A88
:100A0000012289088900D203114341827047000006
:100A100080E200E038B5002403252D0202232A4697
:100A200004212046009400F02AFB00220123052126
:100A30001046009400F023FB04232A4607210020DF
:100A4000009400F01CFB00220323062110460094B2
:100A500000F015FB002209230321104600F0EFFAF5
:100A600000220A230221104600F0E9FA38BDF8B549
:100A700005242407208A022188432082A08A0007B7
:100A8000FCD525484188FF2201321143418060890D
:100A9000000607D5A08880210843A08003210920F3
:100AA00005F050FF6089000609D5A0884021084361
:100AB000A0800321092000F009FD05F061FEFFF789
:100AC000F7FCFFF7A7FF0125032636020023324675
:100AD00005212846009500F0D2FA00233246042171
:100AE0000120009500F0CBFA0022092303211046D3
:100AF00000F0A5FA00220A230221104600F09FFA16
:100B000006480078012801D103F077FE608A202191
:100B100008436082F8BD00002000005084160800E1
:100B200070B50520000701893022914301810189B8
:100B3000802211430181018989088900491C0181B2
:100B4000018908231943018179490C8814430C80D9
:100B5000448A9C4344820589402425430581058AB3
:100B60000426B5430582858AAD07FCD5714E002564
:100B700075600D88012635430D804D89AE056E4D9B
:100B80000E8801D52E4300E0AE430E800D887826F6
:100B9000B54328350D800D88062635430D80458ADE
:100BA0001D4345820B8893430B800289A243028137
:100BB0004889800503D55E49052060318880012081
:100BC000800701688215914301605C4801683F22FB
:100BD00052029143421489180160016802031143D3
:100BE000016070BD0520000701883022114301809B
:100BF0000188032211430180704705200007018806
:100C00003022914301800188890889000180704762
:100C100010B54B4805F09CFE10BD70B5444C608883
:100C2000C006050F05F09AFE61881E2291436A00F6
:100C30001143618070BD10B542490120C863C86B83
:100C40000028FCD101208007C1693F480268914219
:100C500001D20022026019238A1ADB019A4212D3C0
:100C6000016005F081FE394A1188884201D9411A94
:100C700000E0091A89B2182905D31080012005F077
:100C800079FE05F07DFE10BD08B505F07FFE0090F1
:100C900008BD08B505F080FE009008BD08B52C49D8
:100CA00001204A695206D20F13D04A699206D20F28
:100CB0000FD000220A610092FF225F32009B5B1C72
:100CC00000939342FAD34969C907C90F02D005F0CE
:100CD00069FE002008BD10B51E4A002011780029C9
:100CE0000DD018490120C863C86B0028FCD1012031
:100CF0008007C06918490968884201D2012010BDE7
:100D00000020107005F018FE022803D005F014FE34
:100D100001280BD111490820088005200007818A8D
:100D20008906FCD4418A802291434182002010BD73
:100D300020000050B813080000100000000200401E
:100D40007D120000C00000407C0408007804080008
:100D500000100050B01308005479002000330050F8
:100D600030B58B4A8B49D005048880231C4304800E
:100D7000894C65892D0701D4521EFAD2874C012275
:100D80002260874C0A882280864A4988118001881F
:100D90009943018030BD002070477047704770470D
:100DA0000020704701218907086B07221043086360
:100DB0007047704710B57D497B4808607C494C20DE
:100DC00008807B4B7B4A203B1A827C497A484880CA
:100DD0007C487B4901807A49193141802221418137
:100DE00081218900018278494182784901837649CD
:100DF00011314183734976482031888041217548FB
:100E0000090181807449C180734C1034C48101820E
:100E10004182891C8182611FC182FF214631018389
:100E20006E4941836E49592008806D486D4C2030D1
:100E30000480432444806C4C4C82D5218180FF2166
:100E4000D331018169494181694981816A49694890
:100E500008805748694960384180C188102421437F
:100E6000C18060490A390181514C6549403C61802B
:100E70005A82082141814B485949008840390882EB
:100E8000474860490088088010BD4008704700B599
:100E90008BB05D4A42625D4A82625D4A42615D4A50
:100EA000C2625D4A02605D4A02625D4A42605D4A1A
:100EB000C2613E4A3C48002110603C484038026B09
:100EC00003129A430263426B1F231B049A430323BA
:100ED0001B04D218426354480268C3129A4302604A
:100EE000026803139A43026068464154491CC9B220
:100EF0002829FAD3014628224C4805F059FDFFF76E
:100F000059FF05F031FD4A490880002005F032FD07
:100F100005F036FD0BB000BD10B5244A0F21224864
:100F20000902106021484038426B1F231B049A437A
:100F300003231B04D218426300060268D208D200C1
:100F4000026005200007028992089200521C02816B
:100F5000028908231A430281028A0A4302820E4848
:100F60004189890504D5018878229143083101809F
:100F7000FFF720FF2F48006F0078002804D02E488C
:100F800000880B496039C880012005F0A5FC10BD20
:100F9000A0860100087F040020000050008000406F
:100FA000560208004A0308004C0554078000004020
:100FB000602C00507F7F0000AC2900000022005010
:100FC00009090000002400502204000030D0000075
:100FD000EE110000002500502E0200004420000009
:100FE000402800500D95000002420000E4DC0000A3
:100FF0001092000053780000002A00508B1000006F
:101000009DD5000000260050970D00209B0D00206C
:10101000A10D0020A50D00209D0D0020B30D002086
:101020009F0D00208B0E00200002004020000800D1
:1010300078040800E001002052040800704710B551
:10104000032800D10420174C40010019490008185A
:101050001A43C28010BD032800D10420114A400168
:10106000801801228A4082807047032800D1042022
:101070000C4A4001801801228A404280704770B5B6
:1010800006460498144600280D46304602D0FFF765
:10109000ECFF01E0FFF7DFFF224629463046FFF76D
:1010A000CEFF70BD00300050084301218903024685
:1010B0000A4322490A80224A104308800B204880B4
:1010C00070471E490A880F239B0100079A43800D31
:1010D00002430A80704719481A49028802231A43BA
:1010E0000280491E02D302889207FAD400210181AE
:1010F0004089704770B50121890204464E00304690
:10110000FFF7D2FF002C01D0092000E00120FFF7FB
:10111000D8FFFFF7E0FF054600213046FFF7C4FF88
:10112000002C01D0092000E00120FFF7CAFFFFF7E3
:10113000D2FF4019014A0021118070BD00150050F6
:1011400001400000A086010010B51A4949898905AF
:101150000BD5FF21B131884205D3FF386421B13866
:10116000484389000AE0002010BD5521090188424A
:10117000F9D3401A64214843FF21613105F01EFC78
:10118000C0B210BD10B5044603280DD109484089EE
:10119000800509D50120FFF7ADFF0104080D00010E
:1011A000032C03D0002010BD0020F4E7FFF7CCFF94
:1011B00010BD000020000050F0B58E4D2B700523AF
:1011C0001B079C88202634439C808B4C0023A381E2
:1011D000894B6126603B1E801E880627BE4349005E
:1011E0000E431E8019881026B14312011143198045
:1011F0008105890D99800121A181218A8906FCD46C
:101200006870F0BD7C490020888105200007818836
:10121000202291438180704770B5774B764C764D94
:101220000822603B74482034203D1A82018A490715
:10123000FCD5018A8906FCD42188AE8AC907F4D17D
:1012400070BD30B501046B4C0B0E6B4922786039D0
:10125000012A02D0022A0ED110E0674A00259581AA
:10126000C5036478ED0F25438D8001249481148A91
:10127000A406FCD40B82C0B2088230BD0202120E5A
:101280000A82F7E7F0B5044615460846FFF7D9FF8E
:10129000594900226039FF235748013304E0068A88
:1012A000B607FCD50B82521CAA42F8D3EFF3108389
:1012B000012282F31088002209E0068B002EFCD068
:1012C0000E8A27683E702668761C521C2660AA4249
:1012D000F3D3002B03D0012080F31088F0BD002051
:1012E000FAE7F7B50E46002A09D0FF200130841B2B
:1012F000944200D314462546FFF78EFF08E00020F5
:10130000FEBD202231466846FFF7BCFF203C203658
:10131000202CF6D2002C04D0224631466846FFF736
:10132000B1FF2846FEBD30B50C460546FFF774FFF9
:101330002846FFF786FF3048018A8907FCD52E49E9
:1013400060390C82018A4907FCD5018A8906FCD4E0
:1013500030BDF0B5064600258C460846FF292AD840
:101360004007400F08210C1AA24200D21446FFF792
:1013700053FFEFF31087012080F310886046FFF7DA
:1013800060FF1D491C486039028A9207FCD53278FB
:101390000A82641E6D1CA4B2761CADB2002CF3D17F
:1013A000002F0AD0012181F31088018A4907FCD55A
:1013B000018A8906FCD42846F0BD0021F3E7F0B588
:1013C0000D460646FF2901D90020F0BDFF2001305F
:1013D000401B904200D202461446002706E0A2B20B
:1013E000E919F019FFF7B5FF3F18241A002CF6D1C0
:1013F0003846F0BD587900206013005010B5FFF753
:10140000FCFB052000078088C0060BD5064801219B
:10141000818001888022914301800448406800282F
:1014200000D0804710BD000000010050CC13080020
:1014300030B4594C58495948603409E043681A7827
:101440000A6002685B1C521E0CC00838002A05D0D6
:10145000A28B9207D20FF1D130BC704700224260BC
:101460004B680224A3434B6081680029F4D082605A
:1014700030BC0020084730B5474A93898024A343F5
:1014800093810723138100239380958925439581B8
:1014900093809380108091819089A04390814049EE
:1014A000A00108603F4A1168FF242402A1434400C0
:1014B000214311603A49803908603B490860374848
:1014C00003760361C3604360036030BDD3E7334BF1
:1014D0005A61D96018613048012142688A430A4341
:1014E0004260704710B52D4CA26021606060FFF72C
:1014F0009FFF6068002805D0274948680222904372
:101500001043486010BDEDE710B523488168090716
:10151000090F01291AD002291CD0042917D00C293F
:1015200014D11E4A117E012910D141690906C90F43
:101530000CD00021D160116183885B085B0083803F
:101540005369002B02D001205161984710BD00F073
:1015500005F810BDFFF76CFF10BDD5E70F490E4829
:1015600009E002680B691A70CA685B1C521E0B61A5
:10157000CA60002A04D04269D207D20FF1D1704765
:1015800000220A6143685B085B0043604B69002BE3
:10159000F5D000204A61184700110050D41308000C
:1015A00080E100E00CE400E080E200E070B5EFF3E1
:1015B0001085012080F31088264805F005FA0446BE
:1015C000002D1DD0012080F31088002C23D0204650
:1015D0002038C08B204988421DD16189208905F0BF
:1015E000F9F905000ED021461031A38962892089BE
:1015F000A847002806D001280DD002280BD105E00D
:101600000020E0E7204605F0EBF904E01148214610
:101610000C3005F0EBF9EFF31084012080F3108813
:101620000C480068002802D1012005F0E5F9002CE3
:1016300003D0012080F3108870BD0020FAE710B5B8
:10164000BC21064805F0DEF90549012005F0E0F966
:1016500010BD0000A805080038830000040608003B
:10166000AD150020F8B50D46064681002B48EA88E6
:101670004458521C20686B89018F294F51430091B7
:10168000014640314A89C989511A8AB2991A89B2E8
:10169000B94214D29A4212D0294605F0BFF92D89D9
:1016A0002049009805F0C0F92818801C4034E082D9
:1016B0003002401C80B2042105F0BCF9F8BD28219D
:1016C000304605F0BDF9F8BDF8B50546870013486A
:1016D0000C46C059C9880068114E024640325389F1
:1016E000D2899A1A92B28B1A9BB2B34211D20B4E84
:1016F0008A420ED005F0AAF9F05905225F30611C2C
:1017000005F056F92802401C80B2052105F092F937
:10171000F8BD2821284605F093F9F8BD4C030800D0
:10172000FF7F00001027000070B516460D461046DA
:1017300005F092F9002869D0340A304605F08CF99A
:10174000012812D0A87A1E2811D029460A310E2865
:1017500045D019DC801E030005F084F90B255829BB
:10176000582D58315839583D5800022070BD314627
:10177000274805F07DF90021204605F07FF9022178
:10178000304605F057F941E018283CD006DC102817
:1017900019D012282BD0162838D130E0522822D068
:1017A000D22833D127E0204605F06EF92EE02046FE
:1017B00005F070F92AE0204605F072F926E020468F
:1017C00005F074F922E0204605F076F91EE0204687
:1017D00005F078F91AE0204605F07AF916E020467F
:1017E00005F07CF912E0204605F07EF90EE0204677
:1017F00005F080F90AE0204605F082F906E020466F
:1018000005F084F902E0204605F086F9002070BD5D
:1018100001280000F3B581B001980C460102CA1DF1
:101820000E310223344805F07DF904700199054614
:10183000022732488E00002C06D0042C16D0062C2D
:1018400010D0072C3FD108E0815905224968897CD6
:10185000114069708059C77335E0084605F068F992
:10186000687030E080590F21C1732CE00446805924
:101870004068417C012902D1007E01280FD00198E7
:1018800005F05CF901210028A0590BD04268D07DF9
:1018900000281CD001281AD004280DD00FE0002009
:1018A00068700DE04068C27D022A01D0042A06D18A
:1018B000007C02280BD102E0107C022807D06F7058
:1018C000A1590320C873284605F03EF9FEBD697092
:1018D000F6E701460A780120042A01D90020704762
:1018E0004A78002A01D0012AF8D10A79082AF5D8C5
:1018F00049790829F2D87047021C00002805080021
:1019000070B50446007800250D2801D00A2200E0B9
:1019100002225A494B7A002B06D00D2804D0637C52
:10192000032B01D0432551E0097A8A4339D10D2890
:1019300009D00E2802D00F2803D134E0607C0328A0
:1019400004D3402542E0607C0328FAD8A07C042818
:10195000F7D20A2908D0607C012822D0022820D0A2
:101960006078032809D811E005F0F4F8012806D1C1
:101970006078032803D0002801D0492526E005F02F
:10198000E9F8002802D160780228F6D83020035DFB
:1019900022462046E17C3132143000F019F8054629
:1019A00014E0422512E005F0D5F8012807D160784F
:1019B000052804D1A01D05F0D3F80028DDD005F0DE
:1019C000C9F8002802D160780228D6D8284670BD10
:1019D000FFB5002086B001216A46117004460591CA
:1019E0000021002C06D0089D099A1F239A4234D961
:1019F000402032E01C23069D079AF7E76B185E78BB
:101A0000330005F02FF81D261010101010101010C4
:101A100010262626262626262626262626261010A8
:101A2000101010102600059B03E06F46FF5CB742C4
:101A300004D05B1E5BB2002BF7DA03E0002B01DB66
:101A40004A2006E0059B6F46FE54059B5B1CDBB2FB
:101A500005936B5C491C5918C9B2914201D2002808
:101A6000CCD0914202D04A200AB0F0BD641CE4B24E
:101A7000022CF9D20028B3D0F6E700009805080040
:101A800070B516460C46054601280FD106221749A7
:101A9000174805F06BF8002808D006221449304694
:101AA00004F086FF06202070002070BD32462146DB
:101AB000284605F061F870BD70B50E480E49C405A2
:101AC000228880252A4322800C4A53891B0701D48F
:101AD000401EFAD20A4A012010600622044804F08F
:101AE00067FF2088A843208070BD0000383E0300B7
:101AF000F0130800A0860100D47F040020000050ED
:101B000000800040F8B5374C0026606D0090FEF76D
:101B100042FF354D002802D12879022801D100204A
:101B20000090FFF7D8F8002859D105F02BF80028CD
:101B300055D0E8780126002851D005273F07B88AFC
:101B4000C00701D004264AE004F0CCFE002846D1AC
:101B500026488069002801D0606D0090A978684609
:101B600005F016F800283AD0A978684604F0CCFEB3
:101B7000002834D001208407E16B890A89020143DF
:101B8000E163E06B1A490840972189020843E0634A
:101B9000E06B0721C002C00A49050843E0630098D2
:101BA0000426C002642104F03FFF1249401E086071
:101BB0002979002900D0012104F0F0FF0E48C06A05
:101BC0008047206B0004C00FFBD00C480168C9059A
:101BD000FCD504F0E9FF38898021884338813046FC
:101BE000F8BD000060020020C6060800A805080035
:101BF000FF03E0FFF81308001C0708000002004084
:101C000010B50124A407A06BFFF743F8534904F073
:101C10000BFF27221201511A00D10121504A5060B6
:101C20001160206B082188430843206310BD38B53C
:101C3000002000904B4908200880FEF7D3FF0524C0
:101C4000240702E000BF00BF00BFA08A0006F9D54C
:101C500060898008800060814348418849084900C4
:101C60004180FEF7CAFFA08A400701D5FEF7FFFEBC
:101C70002089802108432081208A042188432082F2
:101C8000A08A8007FCD5394948050A68D20202D4E7
:101C90000269520702D4009A002AF6D038BD10B566
:101CA00004F088FF04F08CFF31490120087010BD5A
:101CB00010B504F08BFF05200007418A8022914374
:101CC000418228480189490849000181D00581697C
:101CD00004221143816104F07FFF04F083FF04F0CC
:101CE00087FF23490020087010BD10B504F086FF5F
:101CF00010BD10B501208007008A000704D504F04C
:101D000083FF1B490420087010BD70B51948008876
:101D100085061648AD0E44681748006F0078002805
:101D200002D1284604F076FF14480089104EC00501
:101D300007D520060BD5E00709D0284604F070FF30
:101D400003E0200603D5E00701D003203070200413
:101D500003D5E00501D50220307070BD710200008E
:101D600040000040003300502000005000020040BE
:101D7000FC13080000200050E0010020002C00505F
:101D800010B50A21244804F051FF2449202004F012
:101D900053FF0021202004F04DFE10BD70B51E4DF4
:101DA00006462988042320221D4804F0BBFE044671
:101DB000287904F047FF2080A670204604F0C4FE76
:101DC00070BD7CB50646144D15482988062320228F
:101DD000C01E04F0A7FE04460680287A800706D5B8
:101DE00001206080287AFD210840287201E000204F
:101DF0006080E8886A46801C80B201A904F028FF50
:101E0000009800782071204604F09EFE01212020D9
:101E100004F010FE7CBD0000FE130800806E002060
:101E200006800000FFB585B0072668460672944C10
:101E300020206080087801283DD86072497821729E
:101E4000012902D10F216B461972012805D9694673
:101E5000087A10210843694608728A480092019066
:101E60000023052202A9A01D04F0F8FE050019D1E7
:101E7000E088002104F0F8FE0546207A012811D1FF
:101E8000122069460873E0887F4F401C80B203AB84
:101E90000122002104F0EEFEE0883946801C80B269
:101EA00004F0EEFE68460672002D05D101212020C7
:101EB00004F0C0FD00E08125012320227348089929
:101EC00004F030FE057004F03FFE002009B0F0BDC4
:101ED0007FB50D4600206946694C0880238028881C
:101EE00004F0D4FE2071FF280BD0E0880326801C6C
:101EF00080B2EA1D012104F0CFFE207A012808D02B
:101F000024E0624B89215B1C9A1C5D4800F083FE33
:101F100033E0E8780426012811D1A88869460880B2
:101F200001280CD103202072A879E979884206D0D3
:101F3000E0880021801C82B2514800F082FEE088D7
:101F40006A46C01C80B2022104F0A6FE607A012815
:101F50000BD92946083101A800F04EFEE08801AAFD
:101F6000801980B2072104F097FEA978E08804F078
:101F70007BFE0221202004F05DFD002004B070BD36
:101F800070B53F4D0C46287904F05CFE21888842EC
:101F90001AD1A078697A884216D2E078642813D8DA
:101FA000E888E21C801C80B2012104F075FE287ACA
:101FB000800707D5E8880021801C82B2284600F0FF
:101FC00040FE04E08A2000E08120FFF7E7FE0020C9
:101FD00070BDF8B52A4D0E460888E988C91C8842AC
:101FE0000FD1707A327A0027000210436A461080BF
:101FF00009D0012807D08027318828793A4604F093
:1020000051FE0020F8BD88B2022104F045FE68466A
:1020100000880128287A1CD0FD2108402872F07918
:102020000028E9D01948298806232022801D04F0C1
:1020300079FD0446287904F005FE20806946098868
:10204000A170090AE17000202071204604F07CFD97
:10205000D2E702210843E1E710B50878122802D13F
:102060004878FFF79BFE002010BD10B5044A180AFF
:102070001279904202D10888FFF7A3FE002010BD1C
:10208000FE1308003C6E00200102000001800000E9
:1020900010B51221244804F0C9FD24491C2004F085
:1020A000CBFD00211C2004F0C5FC10BD30B503465B
:1020B0000120002103241A46CA40D20704D04D0053
:1020C00022466D1CAA401043491CC9B20929F2D30B
:1020D00030BD02460020122901D98D207047062A02
:1020E00006D0072A07D0082AF8D10729F5D170476A
:1020F0000829F2D170470629EFD3704770B50A4C12
:102100000546218802231C22094804F00BFD0580A6
:1021100004F01AFDE088002104F0A6FD01211C2036
:1021200004F088FC70BD00000A140800F46F002061
:1021300004700000FEB53B4E1C2070801D46174603
:1021400034460888FFF7B2FF0290374833460190C3
:102150000833132202A90097A01D04F07FFD04009C
:1021600008D1F088002104F07FFD044601211C20E5
:1021700004F060FC01231C2229462C4804F0D2FC08
:10218000047004F0E1FC0020FEBD70B50C4625494A
:102190000B802078082814D8CA880831415C51186F
:1021A0008DB2822D0BD06178FFF793FF010009D12A
:1021B0006D1C6178A8B2A21C04F06EFD08E08221BB
:1021C00000E08121194B17485B1CDA1C00F023FD4D
:1021D000002070BD70B51D460C46088804F056FD01
:1021E000104AFF281071158009D0A178D08804F01A
:1021F0003BFD02211C2004F01DFC002070BD0B4B98
:1022000089219B1C9A1C074800F005FDF5E710B5D5
:10221000044A180A1279904202D10888FFF76EFF2B
:10222000002010BD0A140800E06E002001700000BC
:1022300010B52021944804F0F9FC9449222004F0C0
:10224000FBFC0021222004F0F5FB10BD38B50C4644
:1022500000216D462980012A07D100902888012895
:1022600003D118782021084318702A4602212046FD
:1022700004F012FD38BDFFB581B002981746824CBC
:10228000C0190019407C00250A9A002825D0218910
:102290000818401C86B21946304604F0FDFC02982E
:1022A00004280AD006280BD0072802D0812005B0C8
:1022B000F0BDE019017B202004E0A17A402001E07C
:1022C000A17A8020884301D08A2507E0E680324643
:1022D00000216D4800F0B5FC00E08C252846E6E7BB
:1022E000FFB5694D1E460F4681B02988062322227C
:1022F000674804F017FC0446287904F0A3FC20800A
:102300000020E070667127710198A070204604F0EB
:102310001BFCCCE7FFB581B00B465B4C6946898856
:10232000802000250A340A9F1646002901D0012981
:10233000BDD101AA0221184604F0AEFC5248142E69
:1023400004D0162E04D0172E04D006E0402504E059
:10235000802502E02025C4190C34694689880129AA
:1023600021781AD0A94321700446018848480823DF
:102370002222C01F04F0D6FB0546207904F062FC3F
:10238000288068468088688000206871AF712E714F
:10239000284604F0D9FB002089E72943E3E7F0B59C
:1023A0000025394E9C4615700346327A80209A1AD1
:1023B000D7B22A46B3185C7C631CBB4209D10A70B1
:1023C000072A04DB6346D01F1870072017E000209F
:1023D00017E0042A01D0062A08D1A31CBB4205D16C
:1023E0006046057010461023184308E0072A08DBF2
:1023F000E41CBC4205D1D01F63461870172008703A
:10240000E5E7521C0C2A01DA8028D3D0F0BD70B564
:1024100006461D4C1E48218810232222093804F04C
:1024200081FB054606802089002104F01DFC617DAA
:102430000120002903D0A17A490600D56880E17DFA
:10244000002903D0A17AC90900D0A880A17A890601
:10245000890EA1720021DF230BE06218167BB606FD
:1024600002D54E007619F080167B1E40491C16736B
:10247000C9B2E27A8A42F0D8284604F065FB01210D
:10248000222004F0D7FA70BD1E14080084710020C9
:102490000D880000FFB50C468DB000210891079112
:1024A0000991FF49222048802078FD2500287DD011
:1024B00001287BD88877002069460876E678052EC3
:1024C000F7D8F7480722A11C0A3004F071FAA07867
:1024D000010700D5F34D410702D5032149020D4301
:1024E000C10702D01F21C9020D43800702D5072072
:1024F0000004054300271DE0BA00072000210092D8
:1025000004F0D6FB089B079A1843114308900791E3
:10251000E01900798007800F01280AD108200021E6
:10252000009A04F0C5FB089B079A184311430791D2
:1025300008907F1CBE42DFDC0022104611462B466D
:10254000CB40DB0708D00C23D74F4B43DB19521C81
:102550009B88D2B2181880B2491C1229EFDDD34BE8
:1025600000211F46403FBC463F8D01976746BF8E06
:1025700000971F889B899C4612E0019BD21C18186B
:10258000009BD2B2181863181B7938189B079B0F51
:1025900080B2012B03D1521C6044D2B280B2491CDC
:1025A0008E42EADC00210B46009100E02EE1019012
:1025B000BB480F99083004F081FB060065D1002765
:1025C0005CE0122F05DC2846F840C00755D0F8B271
:1025D00012E03A46133A0799089804F075FBC04395
:1025E000C0074AD138461238C117890F091889081F
:1025F0008900401A1230C0B20C214843AA490B90FE
:1026000043180A93588803AA01920090A448998815
:102610000089022204F05EFB06002ED10A98A24A2D
:10262000C188002929D00B98105AA14A90420A98D3
:102630002ED18168052204A804F0BAF9984A6946A7
:102640008889497C137A8E18099AC31A1132B354B7
:10265000072903D10999491CC9B209916946401C4F
:1026600088810A7B4A744A7B8A74401E80B28881C2
:1026700004AA052104F010FB06467F1CE0788000C8
:102680001230B84201DB002E9BD0002E04D0BEE0F9
:10269000826868468089EDE7814D0021288904F031
:1026A000E3FA0646A07800070FD528892246401C89
:1026B00080B20E32062104F0EFFA28892246083053
:1026C00080B21432022104F0E7FA2889697C22469C
:1026D0004018401C80B20A32042104F0DDFA0027C1
:1026E00014E06846017E06AA491C0176E0190079CB
:1026F0008107890F68464176E9192889097E4018C3
:10270000801C80B2022104F0C7FA7F1CE078B84236
:10271000E7DCA078C10718D0C00616D52889697DE6
:102720001A22401880B2694688810A725D4F02AB56
:102730000A370122002104F09DFA69468889401C6D
:1027400080B28881394604F09BFAA078810718D5B9
:10275000800616D52889E97D1A22401880B269467C
:1027600088810A724F4F02AB0A370122002104F020
:1027700081FA69468889401C80B28881394604F014
:102780007FFA00272EE0E9192889097E401880B2D7
:1027900069468881E1190A799207920F012A05D0CA
:1027A000022A25D0032A25D081261AE012226B4660
:1027B0001A723C4A921C00920979C90604D51A2162
:1027C000197238490A31009102AB0122002104F04C
:1027D00051FA69468889401C80B28881009904F0CA
:1027E0004FFA7F1CE078B84209DD002ECBD00EE016
:1027F0000E2100E00A216A4611720921E3E7002E4A
:1028000005D10121222004F015F900E081260123E1
:1028100022222848109904F085F9067004F094F9F2
:10282000002011B0F0BD10B50A46138801208121A7
:102830004002834211D81A489178847FA1420BD27A
:102840000189C07CD21C0818401C80B2194604F0D3
:1028500023FA010001D106E08921164B10485B1CC8
:10286000DA1C00F0D8F9002010BDF8B50C4C0D466C
:102870002380088804F00AFA2071FF283AD001204A
:102880006077207D002808D0218922460818401C46
:1028900080B21D32012104F0FFF9607D004E0BE093
:1028A0001E140800FF0100007070002070710020ED
:1028B00003280000018800000A3600280AD04021C1
:1028C00000912189EA780818801C81B2A8883346D3
:1028D000FFF7BCFCE07D00280AD08021009121890F
:1028E000EA780818801C81B2E8883346FFF7AEFC0E
:1028F00000261CE0BE4B89219A1CBE4800F08BF9D3
:1029000020E0A319187B8007800F01280DD120201B
:1029100000902089197EEA784018C01C81B27000AE
:10292000401900890C33FFF791FC761CF6B2E07A6F
:10293000B042E6D8A978208904F096F90221222035
:1029400004F078F80020F8BDF8B5AA4E0C468125B1
:10295000307904F077F92188884214D1A078B17FCA
:10296000884210D8C100091A8919E278C97A8A42C6
:1029700009D8A3882D2B06D8A11D00910721FFF7A8
:102980007AFC050005D0E378A27817212846FFF7E6
:10299000A7FC0020F8BDF8B5964D0C468126287995
:1029A00004F050F92188884224D1A078A97F884278
:1029B00020D82379082B1DD8E178042904D00629D2
:1029C00002D0052907D015E0601D002200901046B6
:1029D000FFF751FC0AE0A87D00280AD02989621D72
:1029E0000818401C80B2194604F056F9060001D1BF
:1029F00006E08C26A278E17800233046FFF770FCD1
:102A00000020F8BDF0B57B480C460079190A87B064
:102A100081427DD1208804AB01AA03A9FFF7BFFC46
:102A2000050023D16846027B27460837062A54D082
:102A300008DC012A31D0032A19D0042A4DD0052AF6
:102A4000EFD14AE0072A72D0142A03D0162A01D007
:102A5000172A0BD1607A217A000208436B46197C51
:102A6000009121881B79FFF755FC054694E0207AF8
:102A7000002801D001282FD120883A46012104F0F6
:102A80000BF968465B4F0079217A3818417758482E
:102A9000042322223988001D0FE0207A002801D06B
:102AA000012879D120883A46012104F0F5F8514FE8
:102AB0004F48398804232222093004F033F80646AF
:102AC000387904F0BFF83080207AF07068460079D9
:102AD000B070304604F038F85EE06188082924D8E8
:102AE00020883A4604F0D8F860882222801D83B2FC
:102AF000404801883E48083004F014F806463D4836
:102B0000007904F09FF8308062883946701D00E03B
:102B10004BE003F04DFF68460079B070A07830714B
:102B20006846007BF070D4E701E0802534E06188DE
:102B3000A28888182D28F8D82088002A28D03B465B
:102B400004F0CEF8E079002826D0208805AA02A952
:102B500004F07EF868460089264F083083B2244886
:102B600039882222801D03F0DDFF0646387904F003
:102B700069F8308068460079B0706846007CF07073
:102B800068460289B280B01D059903F011FFA0E7E5
:102B90003A4604F081F8D5E7A079002805D0154819
:102BA000218800792A4604F07DF8002007B0F0BDA6
:102BB0003EB508780C4612280DD10E4802ABC088ED
:102BC00001AA6946FFF7EBFB69460B7A0A79607840
:102BD0000978FFF785FB00203EBD10B5054A180AAD
:102BE0001279904202D10888FFF711FC002010BD35
:102BF000038800001E1408000A7902704A794270A6
:102C00000B8883701B0AC3708A79027149884171ED
:102C1000090A81717047F8B514460F461E460546ED
:102C2000428801880623204603F07CFF0446287969
:102C300004F008F8208027716680204603F084FFA6
:102C4000F8BD70B51446428800790D460102042390
:102C500024480C3103F066FF002D01D0132100E061
:102C600012210170448003F06FFF70BD10B5FFF7B3
:102C70000FFA00F039F8FFF783F8FFF7D9FA10BD23
:102C800070B5064615460C46362003F0E5FE0228D0
:102C900005D1E2B236232946304604F027F81C203D
:102CA00003F0DAFE022805D1E2B21C2329463046A1
:102CB00004F01CF8202003F0CFFE022805D1E2B278
:102CC00020232946304604F011F8222003F0C4FEE8
:102CD000022805D1E2B222232946304604F006F844
:102CE00070BD00000D30000010B50821104803F041
:102CF0009DFF1049362003F09FFF0021362003F08E
:102D000099FE10BD70B50A4D0446E888002103F015
:102D1000ABFF298804233622074803F003FF048011
:102D200003F012FF0121362003F084FE70BD000085
:102D3000401408005872002001D80000FFB58BB085
:102D40000521C90268468182C91C0182FA490183B2
:102D5000FA4C362161800621992500910822002332
:102D600001953621A01D03F0A9FF05007ED1A01D0D
:102D70000125009501900222E08805AB114603F081
:102D8000A9FFE088EE4A022103F086FF03AE019618
:102D90000095E08804AB0222132103F09BFF02AFF1
:102DA000092001970090E088E64B1022042103F0EF
:102DB00091FFE5496846007A48706846407A887015
:102DC0000A4668461321808903F066FF0196009544
:102DD000E08804AB0222132103F07CFF0920019755
:102DE0000090E088D94B1022042103F073FFD849EA
:102DF0006846007A48706846407A88700A46684695
:102E00001321808903F048FF01960095E08804AB08
:102E10000222132103F05EFF01970095E088CD4B5D
:102E20001022042103F056FFCB496846007A48700F
:102E30006846407A88700A4668461321808903F004
:102E40002BFF01960095E08804AB0222132103F0CA
:102E500041FF092001970090E088C04B1022022119
:102E600003F038FF6846BE49007A00E058E0487039
:102E70006846407A88700A4668461321808903F0C4
:102E80000BFF01960095E08804AB0222132103F0AA
:102E900021FF092001970090E088B24B10221421F5
:102EA00003F018FFB0496846007A48706846407AD7
:102EB00088700A4668461321808903F0EDFEAB4D09
:102EC00001960095E08804AB0222132103F002FF73
:102ED00001970095E088A64B1022012103F0FAFE2D
:102EE000A4496846007A48706846407A88700A4665
:102EF00068461321808903F0CFFE09A909200191BA
:102F000000900222E08806AB114603F0E3FE05467E
:102F1000E088002103F0A8FE0121362003F08AFD9D
:102F20000123362294480E9903F0FCFD057003F04E
:102F30000BFE00200FB0F0BD3EB5804C0D46E08882
:102F400002AA0C3080B2694603F082FEE08801AA32
:102F50000D3080B2694603F07BFEE088AA1C0C307D
:102F600080B2012103F098FE01980088002806D065
:102F7000E08800210C3082B22046FFF762FE00207C
:102F80003EBD10B56D480A46C0880421801D80B240
:102F900003F082FE002010BD38B50D4600206946C2
:102FA000664C08802380288803F070FE2071FF287B
:102FB00017D0E0886A460D3080B2022103F06CFE23
:102FC000E0886A460C3080B2012103F065FEA978E2
:102FD000E08803F049FE0221362003F02BFD00209B
:102FE00038BD654A1B23DB02521C89215348FFF779
:102FF00012FEF4E7F8B5514D0C4629798022180AE3
:1030000088427DD1E988208826468B1C0027083617
:1030100098420ED1012100916188324603F03CFEB6
:10302000E079002875D05448082336222988C01F2B
:1030300010E00B1D984229D102210091618832468F
:1030400003F02AFEE079002863D04B482988082342
:103050003622801F03F066FD0646287903F0F2FD54
:1030600030807760E07A01067160A07A0004014345
:103070007160607A000201437160207A01437160DF
:103080000098B070304603F05FFD42E00B460A3313
:1030900098421BD104200090E079002839D03648AE
:1030A000298818233622001F03F03CFD07462879A3
:1030B00003F0C8FD388062883146381D03F078FC83
:1030C000A078F8700098B8703846DCE70B460833F3
:1030D000984220D1032100916188324603F0DCFD43
:1030E000E079002815D02448298806233622401F7D
:1030F00003F018FD0646287903F0A4FD308000E0B7
:1031000018E0B780607A0102B180207A0143B18073
:10311000B6E7002207E00D31884204D161883246CB
:1031200003F0BAFDF5E7A079012803D121882879B9
:1031300003F0B8FD0020F8BD02290000401408008B
:10314000F4710020F67100205A79002006720020E8
:103150006D790020167200208079002026720020F0
:103160009379002036720020A67900200102000029
:1031700046720020B979002009D8000010B5054A30
:10318000180A1279904202D10888FFF7BBFD00208F
:1031900010BD00004014080038B5012468460470D2
:1031A0000E21304803F042FD2E4D6946EC702A1D79
:1031B000352003F0A1FD002800D02C7101F0C2FFE2
:1031C0002949322003F038FD0021322003F032FC7F
:1031D00000F011F938BD10B502F07DFA10BD10B540
:1031E0002048022380783222010220480E3103F069
:1031F00099FC012101701321417003F0A5FC10BD61
:1032000010B5044617482C23807832220102174853
:103210000E31801E03F086FC01462030047200222D
:103220004272084603F090FC10BD10B50123322213
:103230000D210F4803F076FC0221017003F084FC9D
:1032400010BD10B502F00CFA10BD0A4B10B59A4231
:1032500001D91A4602E0002A00D1012203F052FDF2
:1032600010BD00004A140800B872002004380000A5
:10327000033400003075000010B5104603F0ECFB7D
:10328000002809D1012332220D21444803F04AFCD1
:103290000121017003F058FC002010BD70B50878C2
:1032A00014460B2836D006DC01280BD0022831D07A
:1032B00003282FD119E00E281DD00F281FD0162863
:1032C00028D120E04878002824D134482223322213
:1032D0000D21801C03F026FC05460146204601F026
:1032E00040FF284603F030FC14E04878002811D154
:1032F00001F052FF0EE0487801F060FF0AE04878E4
:1033000001F070FF06E04878002803D0472801D17B
:1033100000F07AF8002070BD70B51C4610460D46CE
:1033200003F09AFB022805D11D49200A887028461F
:1033300002F057F8002070BD70B5087815460C46AD
:103340000A2810D1104603F087FB04280BD16078BF
:10335000002802D002F092F905E00521284603F08A
:1033600069FB02F099F9002070BD10B5104602F01B
:1033700054F9002010BD10B510460C4603F06CFB4C
:10338000012808D12078002805D1FFF724FF002864
:1033900001D001F00EFF002010BD0000023400003B
:1033A0004A140800F8B506462248002405468674EB
:1033B000203D03F0ADFC29192031641CE4B20872F1
:1033C000082CF6D300241027381BB04201DD002062
:1033D00007E003F09DFCC117090E0918090A09024C
:1033E000401A2919641CE4B20876102CECD303F0BF
:1033F0008FFC2886F8BD0F4810B52421083803F04B
:1034000001FB01F003FF10BD10B50B4802238078CB
:103410003222010209480E3103F084FB0D210170B4
:103420000121417003F090FB0321322003F002FBE5
:1034300010BD0000681608004A1408001A38000081
:1034400010B5084609781C460B0003F00BFB080575
:103450001E1E1E0816191C1E01F0D9FE15E041782B
:10346000012902D0022903D00FE001F00CFF0CE08B
:103470001146204601F008FF07E001F034FF04E0A8
:1034800001F032FF01E001F030FF002010BD70B507
:1034900008780C46801E3A4D030003F0E3FA04035B
:1034A000142B172B3648897814388176C90707D032
:1034B00034494A79C27406222846891D03F078FAF5
:1034C00001F03FFF16E0FFF78AFE13E02C481022C0
:1034D000A11C2C3803F06CFA214606221231284632
:1034E00003F066FA2648802234384168114341606F
:1034F00002F01BFC002070BDF8B518460E460146D0
:103500001223214803F00EFB0446304601F02EFF43
:10351000002700280CD01A4D143DA87EC00724D0E7
:103520000822B11CA81803F021FB002807D01CE0DA
:103530002770204603F008FBFFF751FE19E0104802
:1035400031883438008E88420FD101202070A87C49
:103550000B49607410221C39601C03F029FAA87E04
:10356000FFF74EFE01F032FF00E02770204603F027
:10357000EBFA0020F8BD10B501F029FF002010BDC6
:103580007C1608004A1408001838000010B52021E5
:1035900002233222880203F0C5FA01210170417032
:1035A00003F0D2FA10BD70B505460C4636480499B2
:1035B0008270C3700171102332222021334803F03E
:1035C000B1FA33490123098801808570C370002254
:1035D00082808471C4712F4C04814281042404735D
:1035E0004273837303F0B0FA70BD10B52648002112
:1035F00041708078002801D001F039FD10BD10B570
:103600002148012141708078002801D001F02EFD71
:1036100010BD10B504461D48042332222021C01CD1
:1036200003F080FA1A490988018000218170C47072
:1036300003F08AFA10BD70B50320FDF7A3FD124D0B
:1036400004462878844202D02046FFF7E2FF2C701F
:10365000A878002807D0192C01D2FFF7D0FF1E2C24
:1036600001D9FFF7C2FF70BD10B507490A22C88013
:1036700032210948FFF7E9FD10BD10B53221064897
:1036800003F0F6F910BD00005A1408000280000093
:103690004A140800AD2700000BC8000010B5322204
:1036A0000C4601231146900203F03CFA2178017088
:1036B00003F04AFA002010BD00207047704710B593
:1036C0004A880121022002F01DFC002010BD10B527
:1036D0001446FFF7B0FF0448214602880348FFF76D
:1036E000B4FD002010BD0000601408000BC80000ED
:1036F000704710B51C2102233222880203F012FA0F
:103700003A21018003F020FA10BD70B50C46054641
:10371000042332221C21054803F004FA058084703A
:103720000021C17003F010FA70BD000003700000AA
:10373000F8B510460E4603F08FF9012852D13078C3
:10374000002845D1294F052332221C21384603F099
:10375000E9F9012101700221417058218170312164
:10376000C17003F0F1F9082332221C21384603F01E
:10377000D9F905250570044645702A461CA1801C10
:1037800003F016F9204603F0DFF9062332221C214C
:10379000384603F0C7F9032202700446427016A1AE
:1037A000801C03F005F9204603F0CEF908233222ED
:1037B0001C21384603F0B6F90446042020706570D9
:1037C0002A460EA1A01C03F0F3F8204603F0BCF932
:1037D000322201231146900203F0A4F931780170DE
:1037E00003F0B2F90020F8BD00207047027000001D
:1037F000312E302E32000000322E3000312E302E8D
:10380000310000008307FF22DB0E9A408907090E72
:10381000994000280BDA0007000F08388308F848A1
:103820009B001818C36993430B43C3617047830817
:10383000F4489B001B1818689043084318607047B1
:1038400070B5F14B0022F14C1D461046E035DA60B0
:103850000C214143C600091976194E600A704A705E
:103860001E698E60401C19610528F1DB70BD0146A0
:103870000068002803D082680A60002181607047D8
:10388000002903D00268002A02D004E0002070471B
:10389000016005E0024690680028FBD191608860D5
:1038A00001207047F0B5DB4AD949002088701446E2
:1038B00003251A3CD8492D021646223E4300D35A0E
:1038C000002B05D0275C7F183B80335C5B181D8084
:1038D000401C0828F2DBF0BDF0B50020CC4AD04FE8
:1038E000507190719070D061CC4E3C461071014681
:1038F00040344B001D19FE526870491CE0541029D9
:10390000F7DBC74DC24E403D10720021C54B283633
:103910002F46D07160378C002B517054491C3851A0
:103920000829F8DBD07050729072F0BD0346B6489B
:1039300010B51030FFF79BFF040012D00320207059
:10394000002161700221A170E070002B0BD059683A
:103950000322606803F02CF8AB4821460C30FFF7D7
:103960008FFF204610BDA8490322491D6068F1E77A
:10397000A54902460020C96804E08B78934200D133
:10398000084689680029F8D1704770B503469E48FB
:1039900015460E461030FFF76AFF04001FD0267050
:1039A00065700020A0700820E070002B03D05968DB
:1039B0000822606808E0944814300078FF286068A6
:1039C00005D091490822143102F0F2FF02E00821EB
:1039D00003F02CF98C4821460C30FFF751FF2046AC
:1039E00070BD70B58D4B8C1812E04D00425B9A4251
:1039F0000DD14A1C09E05600865B9E4204D052005D
:103A0000865A4653835202E0521C9442F3DC491C0E
:103A10008C42EADC70BDF8B5800816460C46800082
:103A200002D0FC2820D18DE0784808273C307E4E1B
:103A30000125016C002A23D0072915DC0021012073
:103A400000F066FF00286FD070493C31096C0729EF
:103A50000BD040680221425C002A02D0491C082990
:103A6000F9DB082908D0445493E0022142685554F8
:103A7000491C0829FADB8CE035806C484780FEE75A
:103A8000062903DD358069484780FEE700210220D2
:103A900000F03EFF061E7DD05C4D00233C35286CB7
:103AA00006282DDCA8896249884229D10220716844
:103AB0000B54401C0828FADB0020C043A88153485F
:103AC000062200213C30FFF78CFF524B00202233AE
:103AD00012E041006A5AFF27910B213714067943FF
:103AE0009204920E2427C9187A438918E20D895C42
:103AF000821C7468401CA154296C8142E9DC48E0B6
:103B0000716802200A5CA24201D10B5402E0401C01
:103B10000828F7DB08283CD002207268841D115C5D
:103B200000290BD1411C07E034E0555C002D02D088
:103B30001554535402E0491C8C42F6DC401C84426C
:103B4000EDDC26E000252846FFF712FF002802D012
:103B500041680D7805E02C4914310978FF2900D01F
:103B60000D462946A143002E00D100240C43AC424F
:103B70000FD0002E01D0012100E00221002D01D044
:103B8000012200E00022FFF700FF002802D0406879
:103B900004700120F8BDFEB50121009104781021C8
:103BA00022070C4041788678FF20120F21304243D3
:103BB00018480D02223012182420484310187200B1
:103BC000875A02953543002C49D110493C310A6C83
:103BD000002A44DD002006E04300C95A8904890C0C
:103BE000A94204D0401C09493C318242F4DC390A24
:103BF00089088900019182421CD100292AD02EE037
:103C000000ED00E000E400E0701408007815080002
:103C1000CC7900204274002000300050FFFF0000EB
:103C200060900020FFFF030000310050003300507F
:103C3000FEFE000043000022FE48D243C252002193
:103C4000026CFFF7CEFEFB48FA49006C401E086488
:103C5000062801DD0120FEBDF64906280ED0002F02
:103C600071D0380A84468008F9B2800014D0F42854
:103C700052D0F8283BD0FC2865D132E0EE4888814C
:103C8000002F60D001980028EBD00022114610468A
:103C9000FFF7C1FE0090E4E7002C22D0E54A0023A4
:103CA000176C06E05800105A8004800CA84202D01D
:103CB0005B1C9F42F6DC9F4206DDE0490120088044
:103CC000DF4908204880FEE7202F0ADADD48029B02
:103CD000007F8003184330437B00D052106C401C9F
:103CE000106422466046FFF796FE00902BE000210C
:103CF000022000F00DFE0028ADD04068082102F03F
:103D000095FFCC49D04A00204300401CCA522028CD
:103D1000FADB0020086416E00D090807000F0121F6
:103D20008140CEB20F2D0ED00220FFF721FEFFF70B
:103D3000FDFD00288FD04068002C415D01D031434B
:103D400000E0B14341550098FEBDC0488178C0787D
:103D5000814201D0012070470020704710B5002338
:103D6000BA4C09E0B9480C30FFF781FD03700146F9
:103D7000B6481030FFF784FDE0680028F2D1B3495F
:103D8000FF201431087008460F38037043708370A9
:103D9000AD4AA84900204400401C0A532028FADB01
:103DA0000B6410BDA9488178C170704770B5A74CED
:103DB0000025207802286AD0207900281AD0FFF741
:103DC000F1FFFFF7CBFF0021022000F0A1FD00284A
:103DD0005DD04068082102F029FF0020FFF7A6FD12
:103DE000002854D04068032102F020FF00202071F9
:103DF00001254CE0FFF7A9FF002848D020780125D5
:103E0000012840D100F08FFD054640E08F4A410077
:103E100043181C32D05C102601073040FF26090FE2
:103E2000213671438A4E9B185A78891924269B782B
:103E3000724389185A00895A0A0AC9B200281DD14A
:103E400090081BD1282907D0582905D008461E38CC
:103E5000092805D81D3908E0A06801F021FA0DE015
:103E600008465938092809D858390A2911D0481C58
:103E700004D0A0680A2250434018A060A078401CDB
:103E80008006800EA070A078E1788842BED12846D6
:103E900070BD0021EDE7F7B50D4601218CB0044659
:103EA000A940242358430E9A099068008646002AA8
:103EB0007ED0A000674B0A901858242326465E4304
:103EC000634B8843F3180122CF4304930190B84217
:103ED0003BD00026B54234D00198104031D1844205
:103EE0002CD013460B439C465A4F8300FB585A4F25
:103EF0009F4363461F4221D000239C467700049BCA
:103F00000797DB5B002B01D001239C462423074647
:103F10005F434F4BFB1877460693DB5B002B02D0C9
:103F200063465B1C9C46069F079BFB5A002B02D0F6
:103F300063465B1C9C466346032B59D0401C0828F3
:103F4000CDDB5200761C122EC4DB002084423CD014
:103F5000404A8300D25801920A4236D101260022FB
:103F600095422ED03B4B0A9F203BDF59019B3740A7
:103F70003340002F01D0002B23D100239C46570053
:103F8000049B0797DF5B002F01D001239C4624236D
:103F900007465F432E4BFF1873460697FF5A002FC4
:103FA00002D063465B1C9C46069F079BFF5A00E0BD
:103FB0000EE0002F02D063465B1C9C466346032B39
:103FC00016D07600521C122ACADB401C0828BDDB22
:103FD0001C4EFF22F06921321D4F4243D319099A2A
:103FE00000219A187346D25A130AF82B03D00BE01B
:103FF00000200FB0F0BDD1B20E9A8843002A00D144
:10400000002108430121F061FF2221325043C219EF
:104010000998134F12187046105A104A904221D135
:104020000E98002803D101F0EDFF01203870012027
:10403000DFE70000B4150800FEFE0000003100506C
:1040400000330050CC790020FFFF000070140800FE
:104050006474002040900020FFFF0300F2F4000091
:1040600004160800002905D1FE48007800281BD05E
:1040700001207072FC48C2788378511C8906890E31
:1040800099421CD00E9B002B00D01023367F3607A0
:10409000360F334356009619F34A1C329355B21823
:1040A00095705470C170C2E7012000F0DDFD3878D2
:1040B0000028DFD000F0C9FF00203870DAE70121C6
:1040C000017195E7F0B503020B439DB201273B4612
:1040D0008B402424E54E4443A4194900615A002929
:1040E00033D00024E24E6100715AA94202D0641C10
:1040F000102CF7DBDE4980002039102C51D06500F0
:104100000C4660342C192678002E07D00027012E8B
:104110000AD0022E1DD0032E41D127E0D5480780BA
:10412000D54908204880FEE76678002E0ED1002A87
:1041300002D00220207032E00021CD4A2770C9430E
:1041400051531146203114E00A5051E00A581A43E5
:10415000FAE7002A05D0C6494039085818401FD050
:104160001DE0032222700722627002E06678002EB2
:1041700002D00A589A43E7E7002A02D002202070B2
:1041800036E00021BA4A2770C94351531146203105
:104190000A589A430A5060390858184228D1012019
:1041A000F0BD002A24D00022B14C5600A65BB34CCF
:1041B000A6420BD1AE4C56004034A45D002C08D072
:1041C000AC480780AC4908204880FEE7521C102A02
:1041D000EADB102A0CD05400A54A1553203215589A
:1041E0001D43155003252032A61875701755ADE7ED
:1041F0000020F0BDF0B589B000249C486100223851
:10420000405A002836D09A489949A50040382039AC
:10421000405949596A4648405151954920314E59B3
:10422000064324D0964901200855304602F076FD19
:1042300020281FD01F21081A6946012749598740A5
:10424000394201D1012200E0002281B2A0B2FFF781
:1042500039FF002808D1864A6846403A41595259E8
:10426000B9433A4011434151BE43DED102E0844894
:1042700000210155641C082CBFDB00247B48610031
:104280002238405A002828D07948A7004038C5591C
:104290006846C059454020D0284602F03FFD2028FE
:1042A0001BD01F21081A69460126C9598640314290
:1042B00001D1012200E0002281B2A0B2FFF7EBFDA4
:1042C000002808D16A4A6846403AC159D259B143D8
:1042D00032401143C151B543DED1641C082CCDDB03
:1042E000634B00206946403B82008C58401C9C5028
:1042F0000828F9DB09B0F0BDFEB5844601786048B6
:10430000002228388378D243002B18D0036A5D4CF2
:10431000963B036200290CD0544B443B5B18203B76
:10432000DB7F1B191D8803231B029D4201D14A1EFE
:1043300052B2534828384079002811D015E04D4931
:10434000012008804C4908204880FEE74D00455B6D
:10435000002D02D05D5C002D07D1491CC9B202E0DE
:104360004248474B22380829F0D3501C40D0002344
:104370005D1E6846058125880580424820300588F5
:10438000684645803F484030058868468580394802
:10439000803805886846C580344855002238405B1F
:1043A000002805D0314D0020443DAD5C2D192880FA
:1043B00011256F462D483438465D30094000385A83
:1043C0003607360FF040C007C00F5B0003436D1E79
:1043D000F0D5274D2C4892002035AD589843A8427F
:1043E00003D0274D0120283DE87021482038835014
:1043F0001E4D3C3D08290FD228464A001A30805AEB
:10440000002809D06A5C1219108028460838032257
:10441000405C120200190280481C624610600829A4
:1044200001D00020FEBDFFF7E5FE154E0020283E1E
:10443000F0710F210E4B4A009F5A104B9F4208D03B
:104440000B4B01204033D3185A78002A01D0521E5A
:104450005A70491EEED5F071317A002918D0491EE4
:10446000317213E0FC150800701408006474002019
:10447000609000200031005000330050FFFF00002A
:10448000F479002000300050FFFF0300401CF07161
:10449000FD480078002801D1FFF788FC307900281A
:1044A00006D0FA4901200880F94908204880FEE733
:1044B0000121F84849038181318AC182F1898182D1
:1044C000B18941822021C181F3480F030760022195
:1044D0001120FFF797F9F148076001203071F0498A
:1044E000F04AF14B00200D5C002D12D185005D5982
:1044F00095420ED1ED4D4700ED5BEC4F1A3F3F5C0E
:104500003F193D80E94F0325223F3F5C2D023F19B3
:104510003D80401C0828E6DB316A1420002900DCBD
:104520003062052109074989490601D4316A06E04C
:10453000716A336A0A119A1A4911511A31620029B3
:1045400000DC3062DA488069316A4018306200F07D
:104550006FF90221306A00F05EF90120FEBDF8B566
:1045600000F066F9EFF31086012080F31088CC4C40
:104570000025283C2079002809D0C6482571C5822D
:104580008582012189034182112000F03CF9002E2F
:1045900023D0012080F310886079002803D0E078D0
:1045A00000281CD02572A0796071E57000F0E3F955
:1045B000BE4A00201646BF4B223E4700D75B002F65
:1045C00002D0315CC9180D80401C0828F5DBA079A9
:1045D000002815D00120A571F8BD0020DAE70120E0
:1045E0006071217A002907D00129DED1E079401ECF
:1045F000E07125726571D8E7E07104202072D4E77C
:10460000E079002801D00120F8BD00F011F92570F3
:104610000020F8BD10B59F480024448284822021E8
:10462000C181112000F0EFF89D48012128388171E7
:10463000047110BD10B5092000F0E5F80520000751
:10464000808A400701D5FCF712FA954901202839E4
:10465000487010BD9248012128388278002A01D084
:104660000170704789480180894908204880FEE729
:1046700070B500F0DDF8002083490446E031C20047
:1046800052181460401C54600528F8DBFFF7D8F876
:104690007D49FF201431087008460F3804704470BB
:1046A0008470451FAC70EC700020834AFF312C7180
:1046B00031314300401CCA522028FADB01200C642F
:1046C0006870FFF709F90220287070BD70B52221CB
:1046D00016233222880202F025FA03460246811C84
:1046E0000120107015200870032048703120887058
:1046F0000224CC70087100254D710A338D71E001E0
:1047000018809D70D8782043D870104602F01CFAAB
:1047100070BD10B5122332222221684802F002FA3D
:10472000674909880180032181700121C17000213E
:104730008180C1800181818102F006FA10BD70B5CF
:10474000FFF7CAF8564801252838457100F013F9DB
:10475000EFF3108485F3108800F07FF80321081F21
:10476000FFF750F84D49E8070860002C03D00120FE
:1047700080F3108870BD0020FAE710B500F05DF8F6
:1047800000F08CF9FFF78EF810BD10B54DA001F0C8
:10479000B5FD3D490120087010BD10B54EA001F0D7
:1047A000ADFD39490020544A88601060087010BD82
:1047B00010B552A001F0A2FD334800214E4A81609D
:1047C00011600221017010BD10B52F4840780028FB
:1047D00002D000F019F910BD00F0D4F810BD10B5EA
:1047E0000124322002F038F9032804D0042802D032
:1047F000052800D00024204610BD10B500F01DF89B
:10480000FFF750F810BDC106C90E012088402349AA
:10481000803108607047224A0023283A1370244AE6
:10482000136150619061106901200143116170476B
:104830001F48002101610069704710B51B49002025
:104840001031FF231B4C01330A5C002A01D01219DE
:104850001380401C1228F7DB10BD30B5134900202F
:104860000B46144C0246223B45004D5B002D02D006
:104870001D5C2D192A80401C0828F5DB0849012001
:104880002839887030BD00007014080000310050D5
:10489000003300500014005080E200E000E100E02E
:1048A000F4790020FFFF03004090002042740020B4
:1048B00000E000E000300050FFFF0000038800002F
:1048C0004A1408004B424420484944207265702035
:1048D0004F4E0D0A000000004B424420484944203E
:1048E000726570204F4646202850617373636F6471
:1048F00065290D0A00000000D41608004B42442030
:1049000048494420726570204F46460D0A00000059
:1049100070B505460C460020FFF72AF822462946C6
:10492000FFF733F870BD70B5714C2069002804D0D2
:10493000A078E178884201D1002070BD6C4D1C3513
:10494000A178480008184019FFF725F9002810D071
:10495000A078401C8006800EA0702169002908D034
:10496000E178814201D3081A01E0081A403000289A
:10497000E6DC012070BD60485E49016241620221AF
:10498000962048E7F0B585B000240E23322222217C
:104990005A4802F0C7F8050033D055480C30FEF7EE
:1049A00066FF044680780026002823D15448082258
:1049B00000882880AE700420E870E0782871681DB7
:1049C000616801F0F5FF6068C77983794279017900
:1049D00003976F460EC7C37882780178494801F083
:1049E0003EFC284602F0B0F84148082214306168C5
:1049F00001F0DEFF3E48267021461030FEF740FFF2
:104A00000124204605B0F0BDF0B53C4885B0002437
:104A1000102332222221801E02F084F805003BD0B0
:104A200033480C30FEF723FF044635480026008843
:104A30002880AE70A078E870E078A8800822A81DD1
:104A4000616801F0B5FF6068C779837942790179BF
:104A500003976F460EC7C37882780178294801F022
:104A6000FEFB284602F070F8A078002802D0022849
:104A70000BD104E01E4808221430616803E01C4892
:104A80000322401D616801F093FF194826702146FA
:104A90001030FEF7F5FE01242046B3E770B505207F
:104AA00000078188102211438180174802F0A4F981
:104AB000164800210181012242800F494D8A45811B
:104AC0008C8A8481CB8AC381098B0182458284824E
:104AD000C382018382800E4954020C6080210180D0
:104AE00001210920FEF78EFE0A48046070BD000017
:104AF00070140800220B0000CC7900200A88000006
:104B00004A140800E07800203546002000010050DB
:104B100080E200E000E100E010B532221146F848E2
:104B200002F002F9502332220D21F64801F0FAFF7B
:104B300004460E202070002060700721217401219E
:104B40006174F1494978002904D0012908D002296B
:104B50000AD115E019218901A1817D21490102E0D5
:104B60003021A1814021E181A074204600F099FD0F
:104B7000204601F0E9FF0221322001F05BFF10BD69
:104B80002021A181EFE710B5322001F065FF032855
:104B900003D0042801D0052819D10A2332220E217E
:104BA000DA4801F0BFFF04460A2020700621618028
:104BB000A1801F20E080C8202081D5A001F09EFBAD
:104BC000204601F0C1FF0421322001F033FF10BD67
:104BD00010B5502332220D21CA4801F0A3FF04462C
:104BE0000F20207000206070072020742021A181F8
:104BF000E18101206074CD48CC49C07CE07520463D
:104C000006221431113001F0D3FE204601F09CFF42
:104C10000221322001F00EFF10BDF8B50646C4484F
:104C20000F460025846906E0A088B04202D1E088E2
:104C3000B84203D02468002CF6D10DE0002C0BD034
:104C400002F078F8A1680D1A02D5012000042D1891
:104C50003946304601F00CFF2846F8BD10B5FBF789
:104C60009DFEFBF794FE10BDF8B5A74C05462078D5
:104C7000012D01D101286ED818214843AD494118B2
:104C8000ADA001F0ECFAAB4928012818C031411859
:104C9000ACA001F0E4FA00260C2D10D1AC480022A3
:104CA0000670092303211046FCF7C9F900220A23E4
:104CB00002211046FCF7C3F9207801284BD1217856
:104CC0009A48022700900B0001F0CCFE0805B2467E
:104CD0005F87F4F3F2D3E078002800D1A670A178C2
:104CE00001430FD100F023FF01F098F901F05BF9C7
:104CF000A070002804D00098C07C002800D0A670C6
:104D00000120E070002D02D0012D23D10DE0A0780C
:104D1000002808D00098807EC00704D0FFF758FF15
:104D20000720207014E066700FE0A078002808D0FB
:104D30000098807EC00704D007202070FFF748FF4E
:104D400006E084486060012060702770FFF7E4FE91
:104D5000FFF784FF8DE094E0022D07D0042D07D0EB
:104D60000D2DF7D16660FEF760FA82E066704DE1C6
:104D70006068002805D062483221801FFFF74DFF90
:104D8000606073480670032072E073A001F0B6FA09
:104D90005B483221401F01F06BFE032D06D0052D2C
:104DA00011D0062D72D00A2D63D107E070A001F05A
:104DB000A5FA53483221744AC01F52E0FEF7F2FFB1
:104DC000FEF7CCFF55E071A001F098FA76484079E3
:104DD00000281CD0A67001204AE074A001F08EFAD1
:104DE00047483221C01F01F043FE022D12D0052D8D
:104DF000E9D0062DD6D0082D3BD15DA001F07EFA7A
:104E00003F48614A3221C01FFEF71FFA31E00120FE
:104E1000A070E0E7FEF7E3F96A48007801F0C0FF10
:104E2000012801DD677001E00120607006201FE0AD
:104E30002B0001F017FE0C1E1E5B071E1E431E1EDC
:104E40002C1E271E2E4D3221ED1F284601F010FE8C
:104E50005DA001F053FA46A001F050FA4A4A32210F
:104E60002846FEF7F2F9FEF79DFFFEF777FF0420D4
:104E700020702078182148432E49411859A001F08C
:104E8000EEF9F8BD324901200870F2E7BDE01C4898
:104E90003221C01F01F0ECFD4BA001F02FFA494870
:104EA000007801F07DFF012805DD52486060B9E718
:104EB000AFE0A5E01DE050486060B5E71048322142
:104EC000C01F01F0D5FD40A001F018FAA07800281D
:104ED00008D00098807EC00704D007202070FFF71C
:104EE00077FEC6E74548606067708EE0FFF74BFECF
:104EF000BFE7052DBDD0062DBBD1667085E0000053
:104F000008C800000E340000FC1508000E38000030
:104F100053656E64204741505F504152414D5F558B
:104F200050444154455F5245510D0A00681608002F
:104F3000A8050800A47600200D0A2A2A3E20257321
:104F40000D0A00002D2D3E2025730D0A00000000E3
:104F5000FC790020504600002020282D29204849B7
:104F60004420454E432074696D65720D0A000000AF
:104F70002020282B292070617373636F646520746F
:104F8000696D65720D0A0000701700002020282B43
:104F9000292075706461746520706172616D732081
:104FA00074696D65720D0A004A1408002020282DCE
:104FB000292070617373636F64652074696D657215
:104FC0000D0A00008C160800282D292070617261DE
:104FD0006D73207570646174652074696D65720D00
:104FE0000A00000020202020284E292025730D0AC9
:104FF0000000000028230000C05D0000B80B000086
:10500000052D00D135E7062DFCD12770FFF784FD73
:105010002FE7022D00D165E7042DF3D10F48606022
:105020006770AEE610B50E48417800290BD0406895
:10503000002805DD82B232210A48FEF706F902E0B7
:105040000D20FFF711FE002010BD10B524210648E9
:1050500001F0D8FC02490020887010BDB80B000098
:10506000FC15080002C80000601608007047704771
:10507000002070470020704710B5012805D0002897
:1050800002D10C20FFF7F0FD10BD0B20FAE7F8B5B8
:10509000FB4A0B20911E01F02FFEF94CA41E0028A4
:1050A00005D014222270F7A1A01C01F081FCF44A63
:1050B0000C201C3211461D3901F01EFE002801D0C3
:1050C0000020607020781A21091A4DB2002D20DDD1
:1050D000102D02D310273D4600E00027E84E2A4657
:1050E0003018EEA1801C01F063FC681C2178002FB1
:1050F000705408DD0920721850704819801C207007
:10510000002D1EDC05E00820721850704819801C24
:10511000207061781A20401A40B2002811DD102852
:105120000FD3D74D10221C356818DCA1801C01F06C
:105130003FFC60781121295409212A18517012303E
:105140006070F8BD10B5FFF793FA00F0C1FCFFF7EF
:105150009EFFFEF7CDFAD64801F01EF9FBF7BEFB25
:1051600010BD70B5032008700A204870D1484882ED
:1051700000250D754D7506200883102048831F20DB
:1051800088830C46C820E0831022CBA1A01C01F02C
:105190000FFC2034257070BD10B50121322001F0C4
:1051A00049FCFEF718F8002802D00020FFF75CFD4C
:1051B00010BD10B50020FFF757FD10BD10B5002839
:1051C0000FD0442806D0C14901200880C0490820DA
:1051D0004880FEE7322001F03FFC022801D1FFF7B2
:1051E00043FD10BD10B500280FD0452806D0B749A3
:1051F00001200880B64908204880FEE7322001F0EF
:105200002BFC022801D1FFF72FFD10BD704770B5B0
:10521000B0A001F073F81E2332220E21B44801F031
:1052200081FC0125057004464570B24800780128CC
:105230000DD093483C213E3001F0E4FB9049A12081
:105240003E310860084600F0C9FD00F0E7FE03208B
:10525000FFF70AFD0021E170102060710520207128
:105260000220A070A44A20725379012B03D1D27A74
:105270009209012A05D0A171E571204601F064FC74
:1052800070BDA071F8E7704770B505460C469BA04D
:1052900001F034F89E4805804480FFF77EFA70BD27
:1052A00070B505469A481E2342880188904801F04F
:1052B00039FC044604202070012060701021A01CDD
:1052C00001F0B4FC280E6071280C2071280AE070EF
:1052D000A570204601F038FC29468EA000F0BFFFE3
:1052E000FFF753FA70BD7047704770B505461E232F
:1052F00032220E217E4801F015FC044688A000F001
:10530000FDFF6878FEF74EF80720207001206070DE
:105310005B485B495E30807C2077594808223E30EC
:10532000008E608220466631143001F041FB544902
:1053300010225631A01C01F03BFB204601F004FC7A
:1053400070BD10B57BA000F0D9FF4D495E31887E5D
:10535000002806D0C00701D000F0E7FCFDF771FF80
:1053600010BD05208876FDF73AFF10BD70B5444D9D
:1053700004465E35A87EC0071DD00822A11CA818CF
:1053800001F0F4FB002816D128462038008E218831
:10539000884210D12846203800F020FDE87E000722
:1053A000000F00F03BFB00280ED0012209216848C5
:1053B000FCF705F808E02188A01C00F0ABFD0128EF
:1053C00002D10A20FFF750FC012070BD704710B5D4
:1053D000FFF7DBF932215F4801F04AFBFDF731FFAF
:1053E00010BDFEB5444D0446A878FF2847D0207A6A
:1053F0000090E388A288618857A000F030FF607BAE
:10540000E27BA17B6B4607C3237BE27AA17A61A092
:1054100000F025FF0420FFF727FC0521322001F0D2
:1054200009FB2088288020880321FEF76EF90026DA
:1054300033460122632103200096FEF7B4F87D2055
:10544000C000FEF711F9FFF764F920882880607A20
:105450006871214606220A31A81D01F0A9FA5848B0
:10546000067000F0B8FF06485E30807EFDF7C8FE8B
:10547000FF22F53232213748FDF7E7FEA2E0C8E00F
:105480000A1608000319C103090212180F180A1896
:10549000F5FE05160A1800010000000044413134F1
:1054A000353830204B6579626F617264000000000E
:1054B00079500020C10300003031323334353637A3
:1054C00038393031323334350000000000310050BB
:1054D0000033005020202020474150435F50414975
:1054E00052494E475F52455120696E640D0A0000D3
:1054F00014380000FC1508004A1408002020202061
:10550000474150435F544B5F455843480D0A0000E4
:10551000FE790020436F64653A2025640A0D00007F
:105520002D2D3E20474150435F4C544B5F4558431F
:10553000480D0A0020202020474150435F50414938
:1055400052494E475F535543434545440D0A0000B9
:105550009016080003C800006761705F6C655F63A8
:1055600072656174655F636F6E6E5F7265715F63B4
:105570006D705F6576745F68616E646C6572282912
:10558000202825642C2025642C2025642C202564CB
:10559000290D0A005065657220616464722025300F
:1055A00032783A253032783A253032783A2530321E
:1055B000783A253032783A253032780D0A000000EA
:1055C0008F16080076A000F099FE6879012803D1B3
:1055D000E87A8009012802D0FDF716FFFEBD1823E6
:1055E00032220D21744801F09DFA044616202070E5
:1055F000012060700622A91DA01C01F0D9F92046E7
:1056000010226E49083001F0D3F9204601F09CFACF
:10561000FEBD0220FFF728FBFEBD10B501F01CFA0D
:10562000052803D0042801D0032816D1322164486C
:1056300001F01EFA62483221801C01F019FAFFF7CE
:10564000B7F8FEF71AF85F49002008700620FFF748
:105650000BFB0221322001F0EDF910BD0020704754
:1056600010B50520FFF700FB7D225201322154487E
:10567000FDF7EBFD54A000F041FE10BD10B5482829
:1056800002D0FDF7ACFD10BD0521322001F0D2F9AA
:105690000520FFF7E9FA10BD10B50520FFF7E4FA81
:1056A00010BD70B54F4D04462A78002A06D020461A
:1056B000A91C143001F07CF92878E0746A78002A7B
:1056C00008D0484920461E31313001F071F9687820
:1056D0002034207470BD70B5434D0024E87805284F
:1056E00017D2012806D0022807D0032808D00428A2
:1056F0000BD108E0FDF7FDFF07E0FDF747FF04E0F1
:10570000FEF7E4FF01E000F05AFEE878401CE87084
:1057100000E00124204670BD10B534A000F0EEFD7D
:105720000220FFF7A1FA002010BD10B533A000F051
:10573000E5FD0E20FFF798FA002010BD10B536A049
:1057400000F0DCFDFDF74BFD002010BD10B537A0CB
:1057500000F0D4FD0D20FFF787FA002010BD0020D7
:105760007047002070470020704710B51348102282
:10577000891D01F0FBF9002802D130490120087091
:10578000002010BD174810B5403000780988000689
:10579000800F884201D000F0C8FA002010BD000040
:1057A0002020282B292048494420454E4320746955
:1057B0006D65720D0A000000163400009116080095
:1057C00001C80000F81508002A2A205365742070CB
:1057D0006172616D207570646174652074696D65B6
:1057E000720D0A00081608004A14080048494420AF
:1057F00074696D6572206578700D0A00484944200F
:10580000496E61637469766974792074696D657233
:10581000206578700D0A00004849445F454E4320DA
:1058200074696D6572206578700D0A0041445620D8
:1058300074696D6572206578700D0A008F16080016
:1058400070B50D467E2332222221364801F06AF9D6
:1058500004467A2020800020A0707A223249E01C81
:1058600001F0A6F8204601F06FF93222012311461B
:10587000900201F057F92978017001F065F90020D4
:1058800070BD0020704710B5C878284908702849B5
:105890000978C907C90F814201D000F046FA0020FB
:1058A00010BD10B50879142802D0172811D102E0D4
:1058B0000422022004E0887900280CD01022042061
:1058C0001B4B1B68134003414888834201D000F002
:1058D0002CFA002010BD08220320F1E710B514486F
:1058E000C97800788006C00F884201D000F01DFA08
:1058F000002010BD10B51446104601F0ADF8052883
:1059000003D10221204601F095F8002010BD10B50A
:105910000878142804D106480178016000F005FADF
:10592000002010BD02880000637800207114080078
:1059300048160800F8B5344C364837492778012511
:10594000324A0823324E00780978002F0AD0012FFE
:1059500011D0022F47D0032F0CD1002925D015805C
:105960007380FEE7084302D015807380FEE7FEF7E0
:1059700004FF2570F8BD002802D015807380FEE773
:10598000254E0029F6D00027EFF31085012080F383
:105990001088022067602070FEF7D1FE3770002D5E
:1059A0001FD01CE080F31088F8BD1A490028FBD0F6
:1059B00000260E70FEF7D3FD002806D00220666098
:1059C00020701AE003202070F8BDEFF3108601204C
:1059D00080F31088FEF7D1FE2570002E01D0012043
:1059E000E0E70020DEE7002902D015807380FEE7A3
:1059F00008490028E8D0002008700348001DFEF781
:105A00007BFC0028DED1F8BD841608000031005070
:105A100000330050CC790020CD7900200020704761
:105A200070B5FF4E90B07079002806D0FD48C07860
:105A300000281CD0401E10B070BD002310241A4650
:105A400002215020FBF7B8FB00253C222146684686
:105A5000FBF747FC08A8C07C002806D10622B11D30
:105A60000DA801F083F8002803D0FBF7CBFB002042
:105A7000E1E7FBF7C7FB2846DDE7EA4900200978A4
:105A8000002900D10120704730B589B02021684637
:105A900000F0B8FF00252C4660014019C5B2202255
:105AA00029466846FBF78BFC641C082CF4DBDD4DB3
:105AB00000242C70DC4804220890114608A8FBF74B
:105AC0007EFC2C711021681D01F0B0F809B030BDCA
:105AD00000B5002391B01A4602215020FBF76CFB61
