:020000040800F2
:10000000E80D0020D5000008556B0008576B00086C
:1000100000000000000000000000000000000000E0
:10002000000000000000000000000000676B0008F6
:1000300000000000000000006B6B0008C3600008B7
:10004000E7000008E7000008E7000008E7000008F4
:10005000E7000008776B0008A16B0008CB6B000875
:10006000E7000008E7000008E7000008E7000008D4
:10007000E7000008E700000800000000E7000008B3
:1000800000000000E7000008000000000000000081
:10009000E700000800000000E7000008E700000893
:1000A000E7000008E7000008E7000008D366000842
:1000B000E7000008E7000008E70000086D6B000893
:1000C0000348854607F0A0FA00480047196B00086E
:1000D000E80D00200448804704480047FEE7FEE79B
:1000E000FEE7FEE7FEE7FEE7F1000008C1000008BA
:1000F0004E480068FF21013108434C49086008461A
:10010000C0684B4908404949C860084600684949E9
:1001100008404649086008468068400840008860FA
:100120000846006801218904884340490860084660
:10013000C068FD21090488433C49C860002008616B
:10014000C8033D4988607047F8B5002500240026A3
:100150000020009000273548C0680C210840054663
:10016000002D06D0042D11D0082D13D00C2D41D117
:1001700014E02E484068072149030840470B781CCB
:1001800001218140C8032D49086040E02C482B49DB
:1001900008603CE02B482949086038E02348C068E3
:1001A0000F218904084004462048C06803218905BE
:1001B00008400646A00C24490C5CB00D461C1B48A8
:1001C000C06801210904084000900098002808D167
:1001D0001B4961430846314607F0C8F917490860D2
:1001E00007E0184961430846314607F0BFF9134953
:1001F00008600CE00D484068072149030840470BA0
:10020000781C01218140C8030C49086000BF00BF71
:100210000648C068F021084000090C490D5C0748F9
:100220000068E84005490860F8BD00000010024081
:100230000C40FF88F6FFF6FE00ED00E00000002015
:100240000024F40000127A00D4760008BC7600087E
:10025000704710B55F480068402108435D49086059
:1002600008460068022108435A490860FFF7F0FF7A
:10027000002010BD704710B50020C0435649886269
:1002800000208862401E486200204862401E0862CA
:1002900000200862401EC8610020C861FFF7EAFF25
:1002A000002010BD70B504467D21C9004B48006890
:1002B00007F05CF9054600F009F900222146501EBE
:1002C00000F0CFF8002070BD45480068401C44494C
:1002D0000860704742480068704731B50024FFF756
:1002E000F9FF044600BFFFF7F5FF001B00998842A5
:1002F000F9D338BD3B480069022188433949086178
:100300007047384800690221084336490861704740
:100310003548704735480068000C7047334800681E
:100320000005000D704731484068012108432F49FE
:10033000486070472D484068400840002B4948609D
:1003400070472A484068022108432849486070479E
:100350002648406802218843244948607047234862
:100360004068042108432149486070471F4840689D
:10037000042188431D49486070471C49496801436E
:100380001A4A51607047194949688143174A5160B8
:100390007047174800680321090208407047144954
:1003A000096A30229143124A11621146096A0143D7
:1003B000116270470E48006A0121C90708430C49C1
:1003C000086270470A48006A40004008084908620D
:1003D0007047000000200240001002400000002092
:1003E0000400002000E000E0000108010058014086
:1003F0000000014010B5002819DA814A03071B0FDD
:10040000083B9B089B00D2588307DC0EFF23A340C8
:100410009A438B071B0E8407E40EA3401A43784BC4
:100420000407240F083CA408A4001A5118E0754AD8
:1004300003231B02D21883089B00D2588307DC0ECB
:10044000FF23A3409A438B071B0E8407E40EA340AF
:100450001A436C4B032424021B198408A4001A516C
:1004600010BD70B504460D46164629462046FFF7D6
:10047000C1FF70BD00BFC206D20E01219140614A8A
:10048000116000BF704700BFC206D20E012191402B
:100490005C4A8032116000BF704700BF00BF00BFE0
:1004A00000BF00BFBFF34F8F00BF00BF00BF564863
:1004B00053491C39C86000BF00BF00BFBFF34F8F56
:1004C00000BF00BF00BF00BF00BFFDE770B504461E
:1004D0002546681E4D49884201D901200CE0681E5E
:1004E0004B4948610321081FFFF784FF002048495A
:1004F000886107200861002070BD01460846002879
:100500000CDA3F4A03071B0F083B9B089B00D2589D
:100510008307DB0EDA401206920F0BE0394A032301
:100520001B02D21883089B00D2588307DB0EDA40E7
:100530001206920F1046704700BFC206D20E01216C
:100540009140344A116000BF704710B5014608461B
:10055000304A1268C406E40E0123A3401A40002A60
:1005600001D0012200E00022104610BD00BFC206EB
:10057000D20E01219140274A8032116000BF70479E
:10058000042806D12249096904221143204A116135
:1005900005E01F490969042291431D4A1161704712
:1005A000704710B5FFF7FCFF10BD4179144A643263
:1005B0009161017901291DD1016809090901D16100
:1005C000817A0907427A12061143C27A92041143D2
:1005D000027B52041143427B12041143C27912027E
:1005E000114382795200114302791143044A643263
:1005F000116204E00021024A6432D1611162704745
:100600001CED00E000E100E00400FA05FFFFFF0040
:1006100000E000E000E200E070B5034600220024A4
:100620000020DAE0012696400D6835402C46002C6B
:1006300077D04D68022D02D04D68122D15D1D50806
:10064000AE001D462035A8595507EE0E0F25B540C2
:100650000646AE4330465607F60E0D69B5402843B0
:10066000D508AD001E46203670514D68012D08D0CA
:100670004D68022D05D04D68112D02D04D68122D08
:1006800018D1986856000325B5400646AE4330465B
:100690005600CD68B54028439860586801259540BC
:1006A0000646AE43304610264D6835402D0995402C
:1006B00028435860186856000325B5400646AE43E7
:1006C00030460D79AD07AD0F5600B5402843186090
:1006D000D86856000325B5400646AE43304656005E
:1006E0008D68B5402843D860012636074D683540EF
:1006F000B54271D1984D6D6B01263543964E7563A9
:10070000964D9608B600A85995072E0F0F25B540AF
:100710000646AE43304605252D07AB4202D10025E3
:1007200015E059E08E4DAB4201D101250FE08D4D12
:10073000AB4201D102250AE08B4DAB4201D103252A
:1007400005E08A4DAB4201D1052500E0062596075C
:10075000360FB5402843814D9608B600A851844D08
:1007600028680546A5432846012636044D683540CD
:10077000B54202D10546254328467D4D286068686C
:100780000546A5432846012676044D683540B54206
:1007900002D1054625432846754D6860A868054680
:1007A000A5432846012636054D683540B54202D19D
:1007B0000546254328466E4DA860E8680546A543D2
:1007C0002846012676054D683540B54202D10546DA
:1007D00025432846664DE860521C0D68D540002D23
:1007E00000D01FE770BDF0B50B46002100220024A9
:1007F00073E001258D401D402A46002A6CD0056813
:100800004F000326BE4035430560CD08AE000546C7
:100810002035AD594E07F70E0F26BE40B543CE0822
:10082000B60007462037BD5185684F000326BE40FD
:10083000B5438560456801268E40B5434560C5686F
:100840004F000326BE40B543C560444D8E08B60038
:10085000AC598D072E0F0F25B5402C4005252D07CF
:10086000A84201D1002514E03D4DA84201D1012547
:100870000FE03C4DA84201D102250AE03A4DA842C2
:1008800001D1032505E0394DA84201D1052500E03D
:1008900006258E07360FB540A5421DD18D072E0FB8
:1008A0000F25B5402C462D4D8E08B600AE59A643F7
:1008B0008F08BF00EE512E4D2D6895432C4E3560AC
:1008C00035466D68954375603546AD689543B560AE
:1008D0003546ED689543F560491C1D46CD40002D19
:1008E00087D1F0BD024613690B40002B01D00120D7
:1008F00000E000207047002A01D0816100E08162A1
:10090000704742694A404261704708B5024601207B
:10091000000400900098084300900098D061D161D5
:100920000098D061D0690090D06901231B04184061
:10093000002801D0002008BD0120FCE7704710B559
:1009400004460B4840692040002804D00848446110
:10095000204605F04CFA10BD00100240080001408E
:100960000004005000080050000C0050001C005013
:1009700000040140704770B5044600250026002C95
:1009800001D1012070BDFF20EA30005D002806D1B2
:100990000021FF20E9300155204604F0D5FE032157
:1009A000FF20EA30015500251BE001221C2068438E
:1009B00021462831401842701C2068430D54002203
:1009C0001C2068434018C2701C2068434018C26055
:1009D0001C206843401802611C2068434018426193
:1009E0006D1C6068A842E0D800251BE000221C2096
:1009F00068432146FF310931401842701C2068438A
:100A00000D541C2068434018C2701C2068434018D5
:100A1000C2601C206843401802611C2068434018D3
:100A200042616D1C6068A842E0D801212068403016
:100A300001800021206840300180206840308180A2
:100A4000206840300182BF26360220684030068090
:100A5000242001550121FF20EA300155E0690128D9
:100A600002D1204601F0AFFB206A012802D12046C6
:100A700001F020FB002085E77047014600BFFF2002
:100A8000E930405C012801D1022070470122FF209B
:100A9000E930425400BF08684030028000220868F4
:100AA00040308280032208684030028000BF00226C
:100AB000FF20E930425400BF0020E6E710B50446AD
:100AC000002C01D1012010BD0321FF20EA30015587
:100AD0002046FFF7D2FF204604F068FE0021FF20E9
:100AE000EA3001550020EEE7014608684030008BEF
:100AF0000122D20310430A6840321083002070475D
:100B0000704770477047024600BFFF20E930805CA5
:100B1000012801D1022070470123FF20E9308354CE
:100B200000BF002904D1802310684030838101E098
:100B30002420815400BF0023FF20E930835400BFEC
:100B40000020E8E77047FFB581B0049E761C760868
:100B50000096039E36180127BF02F419009A08E098
:100B60000B78491C0E7835021D432580A41C491CB6
:100B7000521E002AF4D105B0F0BDFFB582B0054683
:100B80000F461E46002001907806400E1C21484367
:100B90002946283144180498206166610020A0612C
:100BA000012060707806400E207000BFFF20E93001
:100BB000405D012802D1022006B0F0BD0121FF20D6
:100BC000E930415500BFE1686069884204D9E668B0
:100BD0006069801B606102E0666900206061A07A44
:100BE000002813D1B3B2A288216928680090FFF7CA
:100BF000AAFF28684030008A2278D2008018801C22
:100C000001239B022A68D2188652B6E000BF6078A2
:100C100000282DD100BF28684030008A2278D200F9
:100C20008018801C01239B022A68D218811800BFFB
:100C30003E2E0ED900BFF202100CF206D20E002A90
:100C400001D1421E90B282020123DB031A430A80C3
:100C50000CE000BFF203100CF207D20F002A01D003
:100C6000421C90B28206120C0A8000BF00BF0EE048
:100C7000607801280BD128684030008A2278D200A1
:100C80008018801C01239B022A68D2188652607843
:100C900000282DD100BF28684030008A2278D20079
:100CA0008018801D01239B022A68D218811800BF7A
:100CB0003E2E0ED900BFF202100CF206D20E002A10
:100CC00001D1421E90B282020123DB031A430A8043
:100CD0000CE000BFF203100CF207D20F002A01D083
:100CE000421C90B28206120C0A8000BF00BF0EE0C8
:100CF000607801280BD128684030008A2278D20021
:100D00008018801D01239B022A68D218865200BFDA
:100D1000217889002868405A40210840002802D0E4
:100D20002089019001E0E0880190B3B22169286830
:100D30000090019AFFF707FF00BF607800280CD1F0
:100D4000217889002868405AFE490840FE49084336
:100D500022789200296888520EE0607801280BD131
:100D6000217889002868405AF6490840F749084325
:100D7000227892002968885200BF00BF2278920032
:100D80002968895AEF4A30321140084610214840FC
:100D900020214840890201438022114323789B008F
:100DA0002A68D15200BF00BF0021FF20E930415521
:100DB00000BF002000E77047FFB504460D466806F7
:100DC000400E1C2250432246FF32093281180298FD
:100DD00008614B610020886148706806400E087009
:100DE00000BFFF20E930005D012802D1022004B0DD
:100DF000F0BD0122FF20E930025500BFCA684869F2
:100E0000904204D9CB684869C01A486102E04B6936
:100E100000204861887A00282DD100BF206840302A
:100E2000008A0E78F6008019801D0127BF0226680F
:100E3000F619821900BF3E2B0ED900BFDE02300C1E
:100E4000DE06F60E002E01D1461EB0B28602012744
:100E5000FF033E4316800CE000BFDE03300CDE07CC
:100E6000F60F002E01D0461CB0B28606360C168056
:100E700000BF00BF81E000BF487800282DD100BF2F
:100E800020684030008A0E78F6008019801C012707
:100E9000BF022668F619821900BF3E2B0ED900BF8B
:100EA000DE02300CDE06F60E002E01D1461EB0B278
:100EB00086020127FF033E4316800CE000BFDE03DD
:100EC000300CDE07F60F002E01D0461CB0B28606AD
:100ED000360C168000BF00BF0EE0487801280BD109
:100EE00020684030008A0E78F6008019801C0127A7
:100EF000BF022668F6198353487800282DD100BF19
:100F000020684030008A0E78F6008019801D012785
:100F1000BF022668F619821900BF3E2B0ED900BF0A
:100F2000DE02300CDE06F60E002E01D1461EB0B2F7
:100F300086020127FF033E4316800CE000BFDE035C
:100F4000300CDE07F60F002E01D0461CB0B286062C
:100F5000360C168000BF00BF0EE0487801280BD188
:100F600020684030008A0E78F6008019801D012725
:100F7000BF022668F619835300BF00BF0E78B60083
:100F80002268925B714EF13E3240104601221203FC
:100F900050405200504092000243802632430F7866
:100FA000BF002668F25300BF00BF0022FF20E930D7
:100FB000025500BF00201AE77047F8B55E1C76089E
:100FC000009616180127BF02F519009C05E02E882F
:100FD0000E80AD1C491C491C641E002CF7D1F8BDC5
:100FE0007047FEB505460027002001901CE26846C8
:100FF00000890607360F002E7ED168460089102131
:101000000840002831D1286800884E4980390840BE
:10101000296808802C46283428684030008A2178C6
:10102000C9004018801C0122920229688918405A80
:101030008005800DA061A169206940182061002110
:10104000284604F0F5FB2420405D0028CED06069DE
:101050000028CBD12420405D8021084329684031FD
:101060008881002124204155DEE12C46FF340934DB
:10107000286801880191684680880121C9020840DA
:10108000002822D028684030008A2178C900401802
:10109000801D0122920229688918405A8005800D1E
:1010A000A061218B8BB2A2882146E4312868FFF72A
:1010B00084FF286800884004400C224908402968C1
:1010C0000880284604F098FBAEE16846808801213C
:1010D000C9030840002889D0286800884004400CD3
:1010E000184908402968088028684030008A21781B
:1010F000C9004018801D00E063E0012292022968C7
:101100008918405A8005800DA061A06900280BD085
:10111000218B8BB2A288216900912868FFF74DFFCF
:10112000A1692069401820610021284604F06FFB66
:1011300000BF28684030008A801D01239B022A6876
:10114000D21805E08F8F0000C080000080C0000032
:10115000811800BFE2683E2A10D900BFE268D202BF
:10116000100C227BD206D20E002A01D1421E90B270
:1011700082020123DB031A430A800EE000BFE2680B
:10118000D203100C227BD207D20F002A01D0421CBE
:1011900090B28206120C0A8000BF00BF00BF00BFE1
:1011A00029680988FE4A1140084601210903484080
:1011B0004900484089000143802211432A68118078
:1011C00032E1B1002868415A0191684680880121C6
:1011D000C903084000287CD0B1002868405A400468
:1011E000400CF0490840B200296888521C20704326
:1011F0002946FF3109314418A07A002816D1286801
:101200004030008A2178C9004018801D01229202D6
:1012100029688918405A8705BF0D002F4AD0A28837
:1012200021693B462868FFF7C8FE43E02178890022
:101230002868405A012189030840002816D02868F0
:101240004030008A2178C9004018801C0122920297
:1012500029688918405A8705BF0D002F1CD0E288E5
:1012600021693B462868FFF7A8FE15E02868403052
:10127000008A2178C9004018801D01229202296845
:101280008918405A8705BF0D002F05D02289216992
:101290003B462868FFF791FE00BF21788900286847
:1012A000405AC0490840C049084322789200296842
:1012B000885200BFA069C019A0612069C0192061CF
:1012C0006069002802D0E068B84206D92178284633
:1012D00000E008E004F09BFA05E021782846636905
:1012E0002269FFF769FD6846808880210840002850
:1012F0007ED01C207043294628314418B10028684C
:10130000405AA84980390840B20029688852A07A1A
:1013100000281AD128684030008A2178C900401876
:10132000801C0122920229688918405A8005800D8C
:10133000A061A069002854D0208B83B2A2882169C3
:1013400028680090FFF7FFFB4BE0217889002868B0
:10135000405A4021084000281AD028684030008AAE
:101360002178C9004018801C01229202296889183E
:10137000405A8005800DA061A069002822D0208BF2
:1013800083B2E288216928680090FFF7DCFB19E04E
:1013900028684030008A2178C9004018801D012249
:1013A000920229688918405A8005800DA061A069C1
:1013B000002807D0208B83B22289216928680090F9
:1013C000FFF7C1FB00BF217889002868405A7549A2
:1013D00008407349F1310843227892002968885205
:1013E00000BF28684030008A2178C900401800E01A
:1013F0001AE0801C0122920229688918405A80054F
:10140000800DA061A16920694018206160690028F1
:1014100004D12178284604F00BFA05E0217828460B
:1014200063692269FFF7A9FB286840308088029031
:101430000121C9030840002800D0D8E5FEBD70B5E1
:10144000044600252068403080880121C9030840F7
:10145000884202D12046FFF7C4FD206840308088D2
:1014600001218902084088420ED1206840308088DE
:101470004E490840216840318880204604F0F0F948
:1014800000212046FFF73FFB206840308088012183
:1014900089030840884208D120684030808840494C
:1014A0007031084021684031888020684030808851
:1014B000012149030840884207D1206840308088D4
:1014C0003B4908402168403188802068403080884E
:1014D000012109030840884232D120684030008849
:1014E00034490840216840310880BF252D0220681A
:1014F00040300580E069012817D180210D43206824
:101500000122892189000A510022872189000A5578
:101510005421095A01221143542211525421095ACB
:10152000022211435422115200BF204604F0A7F9B1
:1015300020684030808820490840216840318880F8
:101540002068403080880121C9020840884223D1A8
:1015500020684030808819490840216840318880DF
:101560002068403000880821084321684031088005
:1015700020684030008804210843216840310880F9
:10158000206840308088012109030840000B0028B2
:1015900002D1204604F072F92068403080880FE0C4
:1015A0008FBF00008F8F0000C0800000FFFB000095
:1015B000FFDF0000FBFF0000FFEF0000FFF700006F
:1015C00080210840802831D1206840308088FE4941
:1015D000084021684031888087208000005D002815
:1015E00021D120684030008804210843216840311F
:1015F0000880206840300088082108432168403175
:101600000880012187208000015520684030808AB1
:10161000F021084081101120400101510121204694
:1016200000F0FCFD02E0204604F028F9206840307C
:10163000808801214902084088420AD12068403050
:101640008088E2490840216840318880204604F0C3
:10165000FFF8206840308088FF210131084088422F
:1016600008D1206840308088D749803908402168F7
:101670004031888070BD70477047704770470146A1
:1016800000BFFF20E930405C012801D102207047F3
:101690000122FF20E930425400BF08684030008B2F
:1016A000D20310430A684032108300BF0022FF209B
:1016B000E930425400BF0020E9E7014600BFFF20A7
:1016C000E930405C012801D1022070470122FF204F
:1016D000E930425400BF08684030008B4204520C8D
:1016E00008684030028300BF0022FF20E9304254E6
:1016F00000BF0020E9E7FFB581B004460D46002099
:10170000009080202840802807D16806400E1C23C6
:10171000584323462833C11807E06806400E1C23AF
:1017200058432346FF330933C1186806400E08703A
:1017300080202840C0094870CA600498C87000BF63
:10174000FF20E930005D012802D1022005B0F0BD84
:101750000123FF20E930035500BFC878002806D0D8
:1017600001282BD0022810D0032835D118E00B789F
:101770009B002068C05A964B1840FF30FF30023063
:101780000E78B6002368985326E00B789B002068FB
:10179000C05A8F4B18400E78B600236898531BE050
:1017A0000B789B002068C05A894B184003235B02CA
:1017B000C0180E78B600236898530DE00B789B0094
:1017C0002068C05A824B184001239B02C0180E7833
:1017D000B6002368985300BF00BF0B789B002068B9
:1017E000C05A7C4B18407C4B18430B7818430E783A
:1017F000B60023689853887A00287DD1487800285D
:1018000036D088884010430020684030008A0E7827
:10181000F60080190127BF022668F61983530B785A
:101820009B002068C05A4023184000280CD00B7839
:101830009B002068C05A674B1840674B40331843E1
:101840000E78B6002368985300BF0E78B600236860
:101850009B5B604E303633401846202358409B0235
:101860000343802633430F78BF002668F35360E1BB
:1018700088884010430020684030008A0E78F600C7
:101880008019001D0127BF022668F619835300BF87
:1018900020684030008A0E78F6008019801D266886
:1018A000F619831900BFCE683E2E10D900BFCE684E
:1018B000F602300C0E7BF606F60E002E01D1461E07
:1018C000B0B286020127FF033E431E800EE000BF38
:1018D000CE68F603300C0E7BF607F60F002E01D013
:1018E000461CB0B28606360C1E8000BF00BF00BF8B
:1018F0000B789B00206800E028E0C05A01239B037E
:10190000184000280BD00B789B002068C05A314B40
:101910001840324B18430E78B6002368985300BF26
:101920000E78B60023689B5B2C4EF13E3340184680
:1019300001231B0358405B0058409B000343802653
:1019400033430F78BF002668F353F2E00B789B0017
:101950002068C05AFF23013318431E4B18401E4B0A
:1019600018430E78B60023689853C8884010430087
:1019700020684030008A0E78F60080190127BF02E7
:101980002668F619835308894010430020684030C8
:10199000008A0E78F6008019001D2668F619835318
:1019A0004878002869D10B789B002068C05A3B0119
:1019B0001840002818D00B789B002068C05A054BAF
:1019C0001840064B18430BE07FFF0000FFFD0000AE
:1019D0008F8900008F8F00008080000080C0000091
:1019E0000E78B600236898530B789B002068C05A85
:1019F0004023184000280BD00B789B002068C05A69
:101A0000F74B1840F74B18430E78B60023689853ED
:101A10000B789B002068C05AF14B1840F14B1843DB
:101A20000E78B6002368985300BF0E78B60023687E
:101A30009B5BED4E3340184601231B0358405B006F
:101A400058409B000343802633430F78BF0026682D
:101A5000F35300BF00BF0E78B60023689B5BE04ED7
:101A60003036334018460123DB03034380263343DB
:101A70000F78BF002668F3535BE00B789B0020686B
:101A8000C05A01239B03184000280CD00B789B0000
:101A90002068C05AD24B1840D34BF13318430E780C
:101AA000B600236898530B789B002068C05A4023E7
:101AB000184000280BD00B789B002068C05AC84BF8
:101AC0001840C84B18430E78B600236898530B781B
:101AD0009B002068C05AC24B1840C34BF1331843D7
:101AE0000E78B6002368985300BF0E78B6002368BE
:101AF0009B5BBB4E3036334018460123DB03034368
:101B0000802633430F78BF002668F35300BF00BF21
:101B10000E78B60023689B5BB34E33401846012312
:101B2000DB030343802633430F78BF002668F3535B
:101B300000BF00BF0023FF20E930035500BF00981D
:101B400004E670B502460B4680201840802807D175
:101B50005806400E1C24604314462834011907E03F
:101B60005806400E1C2460431446FF340934011902
:101B70005806400E087080201840C009487000BF09
:101B8000FF20E930805C012801D1022070BD0124D2
:101B9000FF20E930845400BF887A002851D148786A
:101BA000002826D00C78A4001068005B4024204058
:101BB00000280BD00C78A4001068005B884C2040F3
:101BC000884C20430D78AD001468605300BF0D7839
:101BD000AD001468645B824D30352C4020460124F2
:101BE000E403044380252C430E78B6001568AC53FB
:101BF000E1E00C78A4001068005B0124A4032040FD
:101C000000280CD00C78A4001068005B744C2040B5
:101C1000754CF13420430D78AD001468605300BF5B
:101C20000D78AD001468645B6F4D2C402046012494
:101C3000E403044380252C430E78B6001568AC53AA
:101C4000B9E0487800285AD10C78A4001068005BED
:101C50000124A403204000280CD00C78A4001068B4
:101C6000005B5F4C2040604CF13420430D78AD00A8
:101C7000146860530C78A4001068005B4024204076
:101C800000280BD00C78A4001068005B544C204056
:101C9000544C20430D78AD00146860530C78A400B8
:101CA0001068005B4E4C20404E4C20430D78AD0038
:101CB0001468605300BF0D78AD001468645B4A4D32
:101CC0002C4020460124E403044380252C430E7855
:101CD000B6001568AC5300BF00BF0D78AD001468A6
:101CE000645B3F4D30352C4020460124E40304431F
:101CF00080252C430E78B6001568AC535BE00C7859
:101D0000A4001068005B0124A403204000280CD02C
:101D10000C78A4001068005B314C2040324CF13448
:101D200020430D78AD00146860530C78A40010684F
:101D3000005B4024204000280BD00C78A4001068E1
:101D4000005B274C2040274C20430D78AD001468E1
:101D500060530C78A4001068005B214C2040224C9A
:101D6000F13420430D78AD001468605300BF0D7846
:101D7000AD001468645B1A4D30352C4020460124B8
:101D8000E403044380252C430E78B6001568AC5359
:101D900000BF00BF0D78AD001468645B124D2C408D
:101DA00020460124E403044380252C430E78B6002A
:101DB0001568AC5300BF00BF0024FF20E9308454F5
:101DC00000BF0020E2E602464806400E1C235843AE
:101DD0001346FF330933C018008B80B270470000F0
:101DE0008F8F0000C08000008FBF000070B50246DA
:101DF0000B4600BFFF20E930805C012801D10220A2
:101E000070BD0124FF20E930845400BF80201840B9
:101E1000802807D15806400E1C24604314462834FD
:101E2000011905E01C2058431446FF3409340119F8
:101E3000012088705806400E087080201840C009A4
:101E400048700878002815D100BF0D78AD001468DF
:101E5000645B844D2C402046012424036040102400
:101E60006040E402044380252C430E78B6001568D8
:101E7000AC532AE04878002812D000BF0D78AD009E
:101E80001468645B784D2C40204610246040E402C6
:101E9000044380252C430E78B6001568AC5314E03B
:101EA00000BF0D78AD001468645B6E4D303D2C4072
:101EB0002046012424036040E400044380252C4391
:101EC0000E78B6001568AC5300BF00BF0024FF2099
:101ED000E930845400BF002092E770B502460B46FB
:101EE00080201840802807D15806400E1C246043EB
:101EF00014462834011905E01C2058431446FF34C9
:101F000009340119002088705806400E087080209E
:101F10001840C009487000BFFF20E930805C0128EC
:101F200001D1022070BD0124FF20E930845400BF9C
:101F30004878002829D00C78A4001068005B402461
:101F4000204000280CD00C78A4001068005B464CA0
:101F5000303C2040454C20430D78AD001468605360
:101F600000BF0D78AD001468645B3F4D2C402046E7
:101F70001024604020246040A402044380252C43A8
:101F80000E78B6001568AC532DE00C78A4001068EC
:101F9000005B0124A403204000280DD00C78A4008D
:101FA0001068005B304C303C20402E4CC134204344
:101FB0000D78AD001468605300BF0D78AD00146853
:101FC000645B284D303D2C402046012424036040B2
:101FD00064006040A400044380252C430E78B600C2
:101FE0001568AC5300BF00BF0024FF20E9308454C3
:101FF00000BF002096E70246002070470146C869EE
:10200000012808D1086840300088202210430A685F
:102010004032108007E008684030008810221043EA
:102020000A6840321080002070470146C8690128C4
:1020300008D1086840300088202290430A68403266
:10204000108007E0086840300088102290430A683A
:1020500040321080002070470146FF20EA30405C8B
:1020600070470000BFBF0000BF8F0000C0800000AD
:1020700070B505460C4680202040802807D16006B8
:10208000400E1C2670432E462836811905E01C2080
:1020900060432E46FF3609368119002A03D10020FD
:1020A00088728B8004E001208872CB80180C088134
:1020B000002070BD0246116801234520C0008350F6
:1020C0005820405A1843582358525820405A022347
:1020D0001843582358520020704701460A680023CD
:1020E0004520C00043505820805A43085B005820C8
:1020F000835200207047704770B505462C68FEF784
:10210000E9F806460BE0FEF7E5F8801B7D21C900E3
:10211000884204D9FF212846FFF7EDFF70BD582003
:10212000005B102108400028EDD0FF202D30FEF785
:10213000D4F85820005B10210840002803D0FE216D
:102140002846FFF7D8FF5820005B0221884358211A
:1021500008535820005B0421084358210853FF20EE
:102160002D30FEF7BAF85820005B202108400028E7
:102170001FD05820005B0421884358210853582061
:10218000005B0821084358210853FF202D30FEF73B
:10219000A4F85820005B40210840002804D0FB210F
:1021A0002846FFF7A8FF08E0FC212846FFF7A3FF19
:1021B00003E0FD212846FFF79EFF00212846FFF798
:1021C0009AFF00BFAAE70246116801238920800018
:1021D000835000238720800083545420405A0123D9
:1021E0001843542358525420405A0223184354236E
:1021F0005852002070470246116800238920800051
:1022000083505420405A43085B0054204352405AA4
:10221000022398435423585200207047704700000F
:102220008048806A0121090708437E498862084680
:10223000806A090488437B49886270477A4800684D
:10224000FF210131084378490860704776480068EB
:10225000FF21013188437449086070477249096859
:10226000E0229143026811436F4A11606F49496847
:102270000122120491436D4A5160114609680122FE
:1022800012049143694A11601146C968012212047F
:102290009143664AD1601146896801221204914334
:1022A000624A91600122120441681140914204D1B6
:1022B0005E49096811435D4A116001225204416878
:1022C0001140914205D15949496852101143574A6A
:1022D00051600179C907C90F002906D0534989689F
:1022E000012212041143514A9160022241681140B7
:1022F000022905D14D49C968D20311434B4AD16027
:1023000070474948006810210843474908607047F2
:102310004548006810218843434908607047424996
:1023200049680143404A516070473F4949688143C9
:102330003D4A5160704710B5024600203A4B18687C
:1023400080088000034613431846374B1860384B0B
:102350001B690424A343364C2361012901D130BFFA
:1023600002E040BF20BF20BF10BD10B502460020D4
:102370002D4B1868800880000346134318462A4BEB
:1023800018602B4B1B6904242343294C236101292A
:1023900001D130BF02E040BF20BF20BF244B1B69EA
:1023A0000424A343224C236110BD1F48006802216E
:1023B00008431D4908601E480069042108431C4960
:1023C000086100BF00BF30BF704719480069022193
:1023D000084317490861704715480069022188437E
:1023E00013490861704712480069102108431049D9
:1023F000086170470E480069102188430C49086144
:102400007047704710B50948406901210904084028
:10241000002805D0FFF7F5FF0120000403494861BB
:1024200010BD000000100240007000400004014098
:1024300000ED00E02E4800680321C9020840704703
:102440002B48006801218902084329490860704728
:1024500027480068012189028843254908607047A0
:102460002348006801214902084321490860704758
:102470001F4800680121490288431D4908607047D0
:102480001B48006801210843194908600846006894
:102490000914084316490860704710B500BF144876
:1024A00000680121890388431149086008460068D3
:1024B0004008400008600F490F48006805F056F8D2
:1024C00032214843044600E0641E002C05D0084831
:1024D0004068202108400028F6D1054840682021A6
:1024E0000840002801D0032010BD0020FCE70000B8
:1024F0000070004040420F000000002008B5F7487F
:102500000068FF2101310843F44908600846C068AB
:1025100080088000C86008460068F1490840EF491B
:10252000086008460068012109040840009000BFC7
:10253000EA48006889008843E84908600020C860CC
:1025400008464068E7490840052149034018E34927
:102550004860084640681F21090288430121090399
:102560004018DE49486000200861DF48DF49086004
:1025700008BD10B5014600230022D848C068F024E9
:102580002040002829D1D548806B01242407204011
:10259000002806D0D64800680324E4022040034601
:1025A00013E0CE48806B012424072043CB4CA0636A
:1025B000CF4800680324E40220400346C748806BEC
:1025C00001242407A043C54CA0630320C00283421A
:1025D00003D1C000814200D10122C64800684008F2
:1025E00040001043C34C206020460068C007C00F65
:1025F000904201D0012010BD0020FCE7F8B5044650
:1026000000252078C007C00F00287DD0B348C068DF
:102610000C21084008280BD0B048C06808400C289E
:1026200013D1AE48C06801210904084088420CD18A
:10263000AA480068012149040840400C002863D0E2
:102640006068002860D10120F8BD00BF01210904A5
:102650006068884205D1A148006808439F49086026
:1026600027E005210904606888420ED19B48006874
:10267000012189040843994908600846006801213E
:10268000090408439549086013E094480068012153
:10269000090488439149086008460068012109043B
:1026A0000840009000BF8D480068890088438B492E
:1026B000086000BF6068002813D0FDF70BFE0546D8
:1026C00006E0FDF707FE401B642801D90320BBE7A5
:1026D00082480068012149040840400C0028F0D0DD
:1026E00012E0FDF7F7FD054606E0FDF7F3FD401BA0
:1026F000642801D90320A7E778480068012149042C
:102700000840400C0028F0D102212068084002282F
:1027100068D17248C0680C21084004280BD06F486B
:10272000C06808400C281DD16C48C068012109040C
:102730000840002816D16948006804210840800834
:10274000002804D0E068012801D001207CE763481C
:1027500040681F21090288432169090208435F4933
:1027600048603FE0E068002824D05C480068092108
:102770008843E168084359490860FDF7ABFD054609
:1027800006E0FDF7A7FD401B022801D903205BE707
:10279000524800680421084080080028F1D04F48C2
:1027A00040681F21090288432169090208434B49F7
:1027B000486017E049480068400840004749086001
:1027C000FDF788FD054606E0FDF784FD401B022865
:1027D00001D9032038E741480068042108408008F7
:1027E0000028F1D1102120680840102860D13B4812
:1027F000C0680C21084000285BD1384800680121DE
:1028000049020840400A002804D0E069002801D1AC
:10281000012019E73148616A4068072252031040DD
:10282000814219D9606AFFF7A4FE002801D0012077
:102830000AE72A484068072149038843616A084338
:1028400026494860084640680002000A218C0906B3
:1028500008432249486018E020484068072149039E
:102860008843616A08431D49486008464068000281
:10287000000A218C0906084318494860606AFFF77E
:1028800078FE002801D00120DEE6606A400B401C83
:1028900001218140C8031149C968F022114009098A
:1028A000154A515CC840114908600320FDF7FAFC45
:1028B00059E0E06900283CD008480068FF21013158
:1028C000084306490860FDF705FD054616E0FDF7DB
:1028D00001FD401B022811D90320B5E6001002407B
:1028E000F4FFF6FEFF1FFF0080841E0000000020A2
:1028F0000070004000200240BC760008FB480068E1
:10290000012149020840400A0028E0D0F748406809
:10291000072149038843616A0843F449486008462F
:1029200040680002000A218C09060843EF4948600C
:1029300019E0EE480068FF2101318843EB49086047
:10294000FDF7C8FC054606E0FDF7C4FC401B022865
:1029500001D9032078E6E5480068012149020840D2
:10296000400A0028F0D1082120680840082839D101
:10297000606900281BD0DD48403000690121084310
:10298000DA4940310861FDF7A5FC054606E0FDF790
:10299000A1FC401B022801D9032055E6D348403052
:1029A00000690221084040080028F0D01AE0CF4812
:1029B0004030006940084000CC4940310861FDF7D3
:1029C00089FC054606E0FDF785FC401B022801D97D
:1029D000032039E6C548403000690221084040081C
:1029E0000028F0D104212068084004287AD100266C
:1029F000BE48806B89060840002805D1BB48806B23
:102A00000843BA4988630126B9480068FF210131AB
:102A10000840002816D1B64800680843B449086049
:102A2000FDF758FC054606E0FDF754FC401B642802
:102A300001D9032008E6AE480068FF2101310840B3
:102A40000028F1D000BFFF210131A068884207D1E2
:102A5000A648403000690843A4494031086139E084
:102A6000A068002810D1A14840300069FF21013141
:102A700088439E494031086108460069091588432A
:102A80009A494031086125E005210902A068884281
:102A900010D19648403000690121890208439349CA
:102AA0004031086108460069891508438F49403163
:102AB00008610FE08D4840300069FF2101318843F3
:102AC0008A494031086108460069091588438749E9
:102AD0004031086100BFA068002816D0FDF7FAFB5E
:102AE000054608E02FE0FDF7F5FB401B81498842D1
:102AF00001D90320A8E57D48403000690121490241
:102B00000840400A0028EED014E0FDF7E3FB05463C
:102B100007E0FDF7DFFB401B7649884201D903201F
:102B200092E5724840300069012149020840400A9C
:102B30000028EED1012E05D16C48806B3107884307
:102B40006A49886300BF20212068084020284BD1B3
:102B5000A069002827D000BF64488068012108438D
:102B6000624988600846406B012108435F49486319
:102B70006148006A0121490308435F49086200BFB8
:102B8000FDF7A8FB054606E0FDF7A4FB401B022865
:102B900001D9032058E555488068022108404008C3
:102BA0000028F1D020E000BF504880684008400075
:102BB0004E4988605048006A0121490388434E49C4
:102BC000086200BFFDF786FB054606E0FDF782FBC5
:102BD000401B022801D9032036E5444880680221C1
:102BE000084040080028F1D1A06A002867D03F487B
:102BF000C0680C2108400C285FD0A06A022841D18F
:102C00003A48006801210906884338490860FDF701
:102C100061FB054606E0FDF75DFB401B022801D97C
:102C2000032011E531480068012149060840400EA3
:102C30000028F0D1216BE06A0843616B08432B49FF
:102C4000C968FD221204914308432849C860084618
:102C5000006801210906084324490860FDF73AFB92
:102C6000054606E0FDF736FB401B022801D903208C
:102C7000EAE41E480068012149060840400E002889
:102C8000F0D01CE019480068012109068843174963
:102C90000860FDF71FFB054606E0FDF71BFB401B28
:102CA000022801D90320CFE4104800680121490619
:102CB0000840400E0028F0D101E00120C4E40020CB
:102CC000C2E4FEB500250026002700240020019064
:102CD00000900648C5680C20284000284FD00428E2
:102CE0000CD0082816D00C2848D116E0001002405D
:102CF000007000408813000000000140FE4800689A
:102D000010210840002802D0FC48009001E0FC4857
:102D1000009042E0FB4800903FE00F2080042840F4
:102D2000800CF9490E5C032080052840800D471C6B
:102D3000F148C068012109040840002807D0F14982
:102D400071430846394604F011FC044614E0EA4891
:102D5000006810210840002807D0E8497143084660
:102D6000394604F003FC044606E0E5497143084691
:102D7000394604F0FBFB044600940EE000BFDE4839
:102D80004068072149030840400B01900198401C0E
:102D900001218140C803009000BF00BF0098FEBD24
:102DA00070B504460D460026D8480068C007C00F1D
:102DB000A8420ED2D5480068400840002843D349B5
:102DC000086008460068C007C00FA84201D0012073
:102DD00070BD022120680840022807D1C648C0689B
:102DE000F0218843A1680843C349C8602078C00720
:102DF000C00F00284CD06068022809D1BE48006886
:102E0000012149040840400C002824D10120DFE7BB
:102E10006068032809D1B8480068012149060840C4
:102E2000400E002817D10120D2E76068012808D1A0
:102E3000B148006804210840800800280BD1012017
:102E4000C6E7AD480068012149020840400A002851
:102E500001D10120BCE7A848C068800880006168F3
:102E60000843A549C860FDF735FA064660680228A0
:102E70000FD107E0FDF72EFA801BA549884201D942
:102E80000320A5E79C48C0680C2108400828F1D120
:102E900034E0606803280FD107E0FDF71BFA801BC0
:102EA0009B49884201D9032092E79348C0680C21CE
:102EB00008400C28F1D121E0606801280FD107E01B
:102EC000FDF708FA801B9249884201D903207FE769
:102ED0008948C0680C2108400428F1D10EE007E0C1
:102EE000FDF7F8F9801B8A49884201D903206FE772
:102EF0008148C0680C2108400028F1D1834800684F
:102F0000C007C00FA8420ED98048006840084000A2
:102F100028437E49086008460068C007C00FA842E1
:102F200001D0012054E7042120680840042808D17A
:102F30007148C068072109028843E16808436E4967
:102F4000C860082120680840082809D16A48C0687C
:102F50000721C90288432169C90008436649C8603E
:102F6000FFF7AFFE6449C968F02211400909694AB8
:102F7000515CC840684908600320FDF793F90020C0
:102F800026E770B586B004460D461646142101A802
:102F900004F02FFB02200290049000200390002CEC
:102FA00018D1FF20013001900020059000BF524849
:102FB000C06A012108435049C8620846C06AC00778
:102FC000C00F009000BF00BF01A905200007FDF75A
:102FD00023FB17E00120400201900020059000BF74
:102FE0004548C06A012108434349C8620846C06A8F
:102FF000C007C00F009000BF00BF01A90520000757
:10300000FDF70AFB3C48C0687F2109068843294632
:10301000314308433849C86006B070BD364800687F
:103020000121C90408433449086070473A480068E0
:10303000704700B5FFF7FAFF2F49C968072212024F
:103040001140090A354A515CC84000BD00B5FFF780
:10305000EDFF2949C9680722D2021140C90A2F4A47
:10306000515CC84000BD1F2101602022016811434E
:1030700001602149096852031140914203D10521A1
:10308000090441600AE01C49096801221204114048
:10309000914201D1416001E0002141601649096877
:1030A000C907C90F002902D00121C16001E0002138
:1030B000C160114949681F2212021140090A0161C9
:1030C0000D490968FF2201321140914202D10121CC
:1030D000C16101E00021C16107494968090E01622F
:1030E00005494968072252031140416202494031B3
:1030F00009690122920213E00010024000093D001C
:103100000024F40000127A00D47600080020024067
:1031100088130000BC76000800000020CC76000870
:103120001140914203D10521090281600AE0394929
:103130000969FF2201321140914201D1816001E011
:103140000021816033490969C907C90F002902D0EC
:103150000121416101E0002141612E494039896826
:10316000C907C90F81612B4940390968012212063C
:103170001140914202D10221816201E0012181626C
:1031800024494039C968012212041140C162214911
:103190004039C9680F229204114001631D4940392A
:1031A000C968032292051140416370470F220260F3
:1031B000184A403AD2689207920F4260154A403A44
:1031C000D268F0231A408260124A403AD26807233C
:1031D0001B021A40C2600F4A403AD268DB001A4014
:1031E000D20802610C4A1268D207D20F0A607047F7
:1031F000704710B5074840384069FF210131084049
:10320000884206D1FFF7F4FFFF2001300149403921
:10321000886110BD4010024000200240F8B504460D
:1032200000260025202120680840202804D089019C
:103230002068084088427DD120212068084020284D
:1032400000D100BF0121C90220680840884200D196
:1032500000BF0027FE48806B0121090708400028B5
:1032600005D1FB48806B0843F94988630127F94879
:103270000068FF2101310840002816D1F548006898
:103280000843F4490860FDF725F8064606E0FDF717
:1032900021F8801B642801D90320F8BDED4800689F
:1032A000FF21013108400028F1D0E94800680321DE
:1032B00009050840054660680840A84203D1A06897
:1032C0000840A8420ED003210904606808408842E3
:1032D00008D1DF480068012149040840002801D0D6
:1032E0000120DAE7DA484030006903210904084088
:1032F0000546002D49D060680840A84204D020212E
:103300002068084020280BD003210904A068084049
:10331000A8423AD00121C90220680840884234D12D
:10332000CB48403000690321090488430546C8485A
:10333000403000E052E000690121C9040843C4495B
:1033400040310861084600690121C9048843C04929
:10335000403108610846056180152840002814D0D6
:10336000FCF7B8FF064607E0FCF7B4FF801BBA493C
:10337000884201D9032090E7B54840300069012117
:1033800049020840400A0028EED000BF00BF0321D8
:1033900009046068084088420AD1AD480068090104
:1033A000884303221205616811400843A849086058
:1033B00000BFA74840300069032212046168114031
:1033C0000843A3494031086100BF012F05D1A0483F
:1033D000806B890588439E49886300BF2078C007B9
:1033E000C00F002809D09A484030C068800880008B
:1033F000E168084396494031C860022120680840CE
:10340000022809D192484030C0680C2188432169C4
:1034100008438F494031C8600421206808400428CF
:103420000AD18B484030C068032189028843616912
:10343000084387494031C8600821206808400828AF
:103440000AD183484030C068032109038843A16939
:1034500008437F494031C860402120680840402827
:1034600009D17B484030C06809058843216A084378
:1034700077494031C86080212068084080280AD1FF
:1034800073484030C068032189048843E1690843D8
:103490006F494031C8600020FFE60021AE22026083
:1034A000012302681A430260402302681A43026043
:1034B0005B0102681A430260654A403212690323C5
:1034C0001B041A4011461A46914201D0416006E0A1
:1034D0005F4A126803231B051A400A434260426890
:1034E00082605B4A4032D2689207920FC260584AAB
:1034F0004032D2680C231A400261554A4032D268E9
:103500001B021A404261524A4032D2689B001A4064
:1035100082614F4A4032D2689B011A40C2614C4AD4
:10352000403212699B101A404260494A4032D268C8
:1035300001239B061A4002627047F0B585B005462C
:1035400000260020039002900024002701900090A4
:10355000102D77D008DC012D75D0022D74D0042DEC
:1035600073D0082D72D144E1202D06D0402D4CD0CF
:103570000120C002281AF5D100E000BF34484030D5
:10358000066900690321090408400446012000047B
:10359000844206D1C0113040002802D06010029051
:1035A00032E001204004844206D10220304000284D
:1035B00002D02A48029027E003200004844221D14F
:1035C0002348006801214904084000281AD02048F7
:1035D0000068210108400390012109050398401A61
:1035E00009D0401A04D0401A08D11D48029008E0C2
:1035F0001C48029005E01C48029002E01B48029023
:1036000000BF01E00020029027E111484030C0686F
:103610000121890608400446002C4DD10C48006861
:1036200049100840002847D00948C0680F21890484
:10363000084007460648C0680321890508400190F4
:10364000B80C15E0FAE047E072E09EE004E100000B
:1036500000100240007000408813000088900000B5
:1036600020A1070040420F0080841E0000093D0099
:10367000FD490F5C0198800D401C0190FB48C0681B
:1036800001210904084000280BD1F84800681021E6
:103690000840002802D0F648009004E0F548009069
:1036A00001E0F54800900098784300900199009857
:1036B00003F05CFF02900EE001208006844208D1F6
:1036C000EA48806802210840002802D0EB480290B6
:1036D00001E000200290C0E0E4484030C068840768
:1036E000A40F002C03D1FFF7B1FC02901FE0022CC5
:1036F00008D1DE48006804210840002802D0DD48D7
:10370000029014E0012C03D1FFF7DBFA02900EE0E7
:10371000032C0AD1D54840300069012149020840F4
:10372000002802D08801029001E00020029094E07D
:10373000CE484030C0680C2108400446002C03D11C
:10374000FFF777FC02901FE0082C08D1C7480068FB
:1037500004210840002802D0C648029014E0042C3E
:1037600003D1FFF7AEFA02900EE00C2C0AD1BF484D
:1037700040300069012149020840002802D0880138
:10378000029001E00020029067E0B8484030C06835
:103790000321890208400446002C03D1FFF749FCAD
:1037A000029025E00120C002844208D1AF480068A1
:1037B00004210840002802D0AE48029018E0012001
:1037C0008002844203D1FFF77CFA029010E00320CC
:1037D000800284420AD1A548403000690121490293
:1037E0000840002802D08801029001E000200290E9
:1037F00033E09E484030C068032109030840044676
:10380000002C03D1FFF715FC029016E001204003C5
:10381000844208D19548006804210840002802D05D
:103820009448029009E001200003844203D1FFF78D
:1038300048FA029001E0002002900EE08B48806B75
:10384000012189050840884203D1FFF7F2FB02906D
:1038500001E00020029000E000BF00BF029805B028
:10386000F0BD8248403000690121490308437F4987
:103870004031086170477D484030006901214903AB
:1038800088437A494031086178480069802188433B
:103890007649086170477548403000690121490345
:1038A000084372494031086170480069802108432B
:1038B0006E490861724800680121C90408437049D3
:1038C0000860084680680121C90408436C49886083
:1038D0007047704710B565484069802108408028CE
:1038E00004D1FFF7F6FF80206049886110BD65486C
:1038F000006A012149030843624908627047614830
:10390000006A0121490388435E490862704700212B
:10391000564A926A0123DB061A43544B9A621A46AE
:10392000926ADB039A43514B9A62436802681A43D6
:1039300083681A431146C2681143028A1204114374
:10394000514A516012683F231B029A4343691B028C
:103950001A434D4B1A601A46126860231A434A4BA9
:103960001A6070474848006880210843464908604B
:1039700070474549496889B20160434909683F2257
:1039800012021140090A41603F498968090C8160AF
:103990003D4989680122D2031140C160704770B56A
:1039A000054600240026FCF795FC064600BF681C6F
:1039B000002807D0002D04D0FCF78CFC801BA84207
:1039C00000D9012430488068C007C00F002806D005
:1039D0000220044300BF01202B49C86000BF2A48D1
:1039E000806802210840022806D10420044300BF59
:1039F00002202549C86000BF234880680121890250
:103A00000840884206D12020044300BF04201E49FC
:103A1000C86000BF1C488068FF210131084088420F
:103A200006D10820044300BF04201749C86000BF26
:103A300015488068012149020840884206D11020BB
:103A4000044300BF04201049C86000BF0E488068CE
:103A500008210840082803D100BF0B49C86000BFF7
:103A6000002CA4D0204670BDD4760008001002407F
:103A700000093D000024F40000127A00006CDC0212
:103A80000004014000000140006C00407047704796
:103A90007047704770B50025284884680668E007BD
:103AA000C00F002809D0F007C00F002805D0012062
:103AB0002249C860FFF7EDFF3EE0022020400028C9
:103AC00009D002203040002805D002201B49C860E0
:103AD000FFF7DEFF30E008202040002809D0082052
:103AE0003040002805D008201449C860FFF7CFFFF8
:103AF00022E00420204000281ED00420304000286E
:103B00001AD0FF2001302040002801D008200543B2
:103B1000012040022040002801D010200543012050
:103B200080022040002801D02020054304200349C2
:103B3000C8602846FFF7AAFF70BD0000006C004077
:103B400010B501460022784881420DD18014774B90
:103B50005B6A0343754C636200BF00BF23465B6A28
:103B60008343636200BF0122714881420DD100147A
:103B70006E4B9B6A03436D4CA36200BF00BF23469C
:103B80009B6A8343A36200BF0122104610BD30B57B
:103B90000246002300BF106840242040800900280E
:103BA00027D14C68086820438C682043CC682043A8
:103BB0000C6920434C6920438C692043CC69204325
:103BC0000C6A204314685B4D2C4020431060506801
:103BD0000424A0434C69240C204350600124640356
:103BE000086AA04204D1486A84B2146100BF00BFD1
:103BF0000123D0690124E402A043D061184630BDFE
:103C00000021016041608160C160016141618161A9
:103C1000C161016207214162704710B50446204628
:103C2000FFF78EFF10BDF0B589B005460C460227A0
:103C300000200890012007900026002002900190AB
:103C400000BFE86979020840800A002855D1616800
:103C500020680843A168084361690843B902084322
:103C6000E969354A11400843E8612069022835D0E6
:103C7000A068002801D00220079003A800F016FADF
:103C80000398029001214902E06888420AD1216923
:103C9000029A120A0A235A43104603F067FC401D99
:103CA00086B20CE007984101029803F05FFC0A21FC
:103CB00048430090216903F059FC401D86B20A2157
:103CC000304603F053FC0646F007C00F08900898F2
:103CD000301AC003070C089800020890022F01D385
:103CE000FF2F02D902270020089038460899084380
:103CF000E1680843286201200190019809B0F0BDF5
:103D00000021016041608160C160022101610021E8
:103D10004161704710B5036A5B0A5B0214020C43F1
:103D20002343036210BD0000003001400010024038
:103D3000003800404000FFFFC0F4FFFF70B50446AC
:103D4000012505200007844206D1012000F0B8F8C3
:103D5000012000F0BBF828E05F48844206D1022031
:103D600000F0AEF8022000F0B1F81EE05B4884429B
:103D700006D1042000F0A4F8042000F0A7F814E015
:103D80005748844206D1082000F09AF8082000F035
:103D90009DF80AE05348844206D1802000F090F854
:103DA000802000F093F800E00025284670BDF0B5B3
:103DB00002460B460026002162E00124B440186848
:103DC0002040014600295AD0586814680D464D43DA
:103DD0006F00ED19AC430D464D4345432C43146031
:103DE00000BF5868012802D0586802280DD1986891
:103DF00094680D464D436F00ED19AC430D464D439D
:103E000045432C43946000BF00BF1869D4680D4639
:103E10004D436F00ED19AC430D464D4345432C43D4
:103E2000D46000BF5868022829D1FF2911D85869E9
:103E3000146A0D464D434D434D432F017D1BAC434A
:103E40000D464D434D434D4345432C43146200BF43
:103E500015E05F69080A40430C0A60430C0A60439E
:103E60000401241A506AA0430C0A64430D0A6C43EF
:103E70000D0A6C437C432043506200BF00BF761C98
:103E80001868F040002898D15868012802D0586876
:103E9000022809D1DC6818685568854307466743DE
:103EA0003D43556000BF00BF0120F0BD0E490160D9
:103EB0000321416000218160C1600161416170475F
:103EC0000A49C9690143094AD16170470749C9696B
:103ED0008143064AD1617047000400500008005039
:103EE000000C0050001C0050FFFF000000100240BA
:103EF000002100BFFE480068FF2201321043FC4A47
:103F0000106000BF00E000BF00BFF9480068012258
:103F100052021040400A0028F5D005204003F44A20
:103F2000526807235B039A430243F14B5A6000BF78
:103F300000201A4652681202120A03061A43EC4B7A
:103F40005A6000BF10201A4652681F231B029A4372
:103F500003021A43E64B5A6000BF0021C943E548FB
:103F600001401846C1600168E348014018460160FD
:103F7000016800BF00680122920490431A46106055
:103F800000BF03221205084690430146184601600F
:103F900000201A46D060906000BF1046806840083C
:103FA0004000906000BF0020106101207047014672
:103FB00000BFCF48C0680722D2021040C00ACF4AD3
:103FC000125C0846D0407047014600BFC848C06830
:103FD000072212021040000AC84A125C0846D0406C
:103FE0007047014600BFC248C068F0221040104030
:103FF0000009C34A125C0846D0407047F8B5002457
:10400000002500BFBA48C0680121090408400546E0
:10401000002D03D00846281A04D101E0B94C03E072
:10402000B94C01E0B74C00BF00BF00BFB048C0684A
:10403000032189050840800D461CAD48C0680F214A
:1040400089040840800CB149085C6043074631464A
:1040500003F08CFAF8BD10B5002400BFA448C06876
:104060000C210840002806D004280CD008280CD0C9
:104070000C2810D10BE000F076F9400B401C012118
:104080008140CC030FE09F4C0DE09F4C0BE0FFF70D
:10409000B5FF044607E000F066F9400B401C012123
:1040A0008140CC0300BF00BF204610BD10B50446C0
:1040B000FFF7D1FF20602068FFF793FF6060606822
:1040C000FFF782FFA0606068FFF771FFE06010BD3E
:1040D000F8B504460025032C29D1204600F049F903
:1040E0002104401A18D0012804D0022806D0032841
:1040F00011D109E0FFF7AFFF054617E000F025F901
:10410000002800D07F4D11E000F025F9002801D0F3
:104110000125ED030AE000BFFFF79DFF0746FFF70B
:1041200060FF0646FFF743FF054600BF00BF0C2CAB
:1041300029D1204600F01DF92104401A18D0042886
:1041400004D0082806D00C2811D109E0FFF783FF1E
:10415000054617E000F0F9F8002800D0694D11E09D
:1041600000F0F9F8002801D00125ED030AE000BFB6
:10417000FFF771FF0746FFF734FF0646FFF724FFFE
:10418000054600BF00BF2846F8BDF8B50446002527
:1041900003200003844229D100BF55484030C06845
:1041A00020400009210108432101401A13D0FF38A3
:1041B0000138002804D0FF38013800280AD103E074
:1041C000FFF749FF054610E000F0BFF8002800D0D7
:1041D0004C4D0AE000BFFFF73EFF0746FFF701FF27
:1041E0000646FFF7F1FE054600BF00BF2846F8BDB2
:1041F000F8B50446002500BF3D484030C068204067
:1042000000281AD001218902401A04D0401A06D091
:10421000401A11D109E0FFF71EFF054617E000F034
:1042200094F8002800D0374D11E000F094F80028F1
:1042300001D00125ED030AE000BFFFF70CFF0746A0
:10424000FFF7CFFE0646FFF7BFFE054600BF00BFE3
:104250002846F8BDF8B504460025032080048442B2
:1042600033D100BF22484030C0682040002821D010
:1042700001218904401A04D0401A0DD0401A18D1E7
:1042800010E000BF1A484030006902210840400891
:10429000002800D01E4D17E000F057F8002800D08D
:1042A000184D11E000F057F8002801D00125ED036A
:1042B0000AE000BFFFF7CFFE0746FFF792FE064673
:1042C000FFF782FE054600BF00BF2846F8BD70B567
:1042D0000446002500BF06484030C0682040002842
:1042E00018D03F2189064018002820D120E0000086
:1042F000001002400CC0FFF0F4FFFEFECC76000878
:10430000BC7600080024F40000127A00D47600087D
:104310008890000000BF1B48006801214906084042
:10432000400E002802D0FFF769FE05460AE000BFF4
:1043300000BF14488068022108404008002800D0CF
:10434000114D00BF00BF284670BD0E480068042113
:104350000840800870470B4840300069012149023D
:104360000840400A70470748406807214903084051
:104370007047014603484030C06808400A041043B3
:104380007047000000100240006CDC0270B504466B
:104390000125A807844206D1012000F04AFA012035
:1043A00000F04DFA1EE0F848844206D1102000F0DB
:1043B00040FA102000F043FA14E0F448844206D199
:1043C000042000F042FA042000F045FA0AE0F04828
:1043D000844206D1202000F038FA202000F03BFA79
:1043E00000E00025284670BD002101804160491E83
:1043F00081600021C160704710B502460023136838
:1044000001208007824205D0E048824202D0E04885
:10441000824205D118467024A0434C6820430346CD
:1044200001208007824205D0D848824202D0D84875
:10443000824206D1184603242402A043CC682043BC
:10444000034613608868D06200BF0888906200BF8E
:1044500000BF506901242043506100BF012010BDFE
:104460000021016041608160C160704770B5024603
:10447000002300240025106A01263603B043106291
:10448000146A5568D369032636021846B0430346BA
:10449000184607263603B0430E68360230430346FB
:1044A000204601267603B043CE68360330430446E7
:1044B000204601263603B0434E6836033043044697
:1044C0005560D3618868106400BF1462012070BD1C
:1044D00070B50246002300240025106AFF2601362D
:1044E000B0431062146A5568D3699B089B00184654
:1044F0007026B0430E6830430346204601267602FC
:10450000B043CE683602304304462046FF260136CB
:10451000B0434E683602304304465560D361886824
:10452000D06300BF1462012070BD70B50246002345
:1045300000240025106A1026B0431062146A5568E2
:104540009369032636021846B043034618460726E9
:104550003603B0430E683602304303462046202619
:10456000B043CE6836013043044620461026B0439F
:104570004E68360130430446556093618868906305
:1045800000BF1462012070BD70B5024600230024F4
:104590000025106A400840001062146A556893694B
:1045A0009B089B0018467026B0430E6830430346B4
:1045B00020460226B043CE683043044660084000DF
:1045C0004E6830430446556093618868506300BF6D
:1045D0001462012070BDF8B506460C46154600274A
:1045E000012C0AD0102C0ED0E01FF938002810D072
:1045F0000F210902401A18D111E029463046FFF771
:10460000C3FF074612E029463046FFF78EFF0746F4
:104610000CE029463046FFF75BFF074606E02946D7
:104620003046FFF723FF074600E000BF00BF3846D3
:10463000F8BD002101600121090441600021816071
:10464000C160704710B50246106A01231B039843EE
:104650001062CB68486818438B681843000AD36916
:10466000FF242402A3431843D061106A05235B038F
:1046700098430B681B03012424032343184310624F
:10468000012010BD10B50246106AFF230133984384
:104690001062CB68486818438B681843000CD369D4
:1046A0001B0A1B021843D061106A05235B02984362
:1046B0000B681B02FF2401342343184310620120BE
:1046C00010BD10B50246106A102398431062CB68E3
:1046D000486818438B681843000A9369FF24240232
:1046E000A34318439061106AA02398430B681B01F1
:1046F0001024234318431062012010BD10B5024658
:10470000106A400840001062CB68486818438B6804
:104710001843000C93691B0A1B0218439061106A2E
:104720000A23984301240B68234318431062012095
:1047300010BDF8B506460C4615460027012C0AD0D8
:10474000102C0ED0E01FF938002810D00F210902DC
:10475000401A1FD111E029463046FFF7CFFF074628
:1047600019E029463046FFF7ACFF074613E029461B
:104770003046FFF787FF07460DE029463046FFF732
:1047800061FF074607E000000010004000080140FC
:104790000014014000BF00BF3846F8BD0121016090
:1047A000002141600121090481600021C160016193
:1047B00041610121090481610021C16101627047E9
:1047C00030B5024600230024106A1125A843106268
:1047D0009369146A1B0A1B028868000C034308696A
:1047E000000C0343C868000C0343FF252D02184644
:1047F000A84303468869000A0343086A000A034382
:10480000C869000A0343AA252046A843044648680D
:104810000443486900010443112004430868956873
:10482000ED08ED000543956000BF9361146201201F
:1048300030BD0C49896A01430A4A916270470949AF
:10484000896A8143074A916270470649496A014370
:10485000044A516270470349496A8143014A5162DF
:10486000704700000010024010B501460122684860
:1048700081420DD19003674B5B6A0343654C6362D1
:1048800000BF00BF23465B6A8343636200BF12E040
:10489000614881420ED1012040045E4B9B6A034374
:1048A0005C4CA36200BF00BF23469B6A8343A362A4
:1048B00000BF00E00022104610BDF8B505460C46CA
:1048C00000270026284600F072F8002835D1E1685C
:1048D0006068084321690843A169084329684F4A71
:1048E000114008432860A0686968032212039143BD
:1048F0000143696000BF6069A968121191430143D7
:10490000A96000BF4248854204D10320FFF7E0FBC5
:10491000064606E04048854203D10C20FFF7D8FB4D
:104920000646002E09D02068002806D0012731460F
:1049300028462368A26900F042F83846F8BD4B21AA
:10494000C9010160002141608160C1600C210161E9
:10495000002141618161704770B504460D46012612
:10496000204600F024F8002818D12868002806D135
:1049700000BF6068F1028843606000BF0FE0012162
:10498000C90268680843A9680843E9680843616880
:104990000F22120291430843606000E00026304677
:1049A00070BD0021016041608160C16070470146B7
:1049B0000868C007C00F0122504050407047FEB544
:1049C00005460E4617461C46002001900090012027
:1049D000C003874214D1710062088818214602F092
:1049E000C5FD80B201900E490198084000900198E1
:1049F0000007400F0099084300900098E86006E027
:104A000061088819214602F0B1FD80B2E860FEBD60
:104A1000003801400010024000440040F369FFEFFD
:104A2000F0FF000070B504460E460025082303225F
:104A30008121204600F09EFF0123032219462046D3
:104A400000F098FF102001F025F84321C90008511B
:104A500001236E4A1946204600F0FDFF4320C000A6
:104A60000059002801D1012504E000214320C000A5
:104A700000590173284670BD70B504460D4681216A
:104A8000204600F086FF0121204600F082FF4320EF
:104A9000C0000059002808D04321C900085900F07F
:104AA000FCFF00214320C0000151002070BDF8B57B
:104AB00006460C460027002000904320C000855980
:104AC000207860210840002825D0202857D1607820
:104AD000022812D0032806D00A280AD00B2812D1A7
:104AE000A078286015E001222946304600F0C8FD74
:104AF0000FE06088001268600BE00122291D30463B
:104B000000F0BEFD05E02146304600F071FA0220BB
:104B1000F8BD00BF33E06078062804D00A2823D00F
:104B20000B282BD127E060880012222809D1E088C9
:104B3000412801DD412000E0E0880746344800902C
:104B40000CE060880012212808D132480090E088EB
:104B5000092801DD092000E0E08807463A46304692
:104B6000009900F08DFD09E0012229460831304608
:104B700000F086FD02E0A078A86000BF00BF00BF83
:104B80000020C5E7F8B504460D4616464320C00090
:104B90000759FF20FD30005D03280AD1387B00282B
:104BA00007D10120387333462A468121204600F080
:104BB00043FF0020F8BD014600200A7C002A01D1F5
:104BC000082000E00A20704701462920088012488A
:104BD0007047024600234320C00080580373002022
:104BE000704770B504460D460123084A19460B4824
:104BF000FCF7E2F80548007802F0EAFB002070BDFF
:104C000001460A200880064870470000080000207E
:104C10008800002070000020440000205401002083
:104C20007C00002070B504460D461646002C01D1CC
:104C3000022070BD852080000059002803D000218B
:104C4000852080000151002D02D021200001055156
:104C50000121FF20FD3001552670204600F034FE72
:104C60000020E6E710B504460121FF20FD30015584
:104C700021798520800000594268204690472046CF
:104C800000F06FFE204600F05AFE002010BD0246E4
:104C90000020002903D085239B00995000E00220CA
:104CA000704710B50446204600F052FE002010BDAB
:104CB00010B50446217985208000005942682046BD
:104CC0009047204600F04DFE002010BD0146002018
:104CD000704770B504460D460226852080000059B5
:104CE000002809D085208000005929460268204606
:104CF0009047002800D10026304670BD70B50446AC
:104D00000D4685208000005929464268204690477C
:104D1000002070BD70B504460D4629464120C000F4
:104D2000201800F068FC0121FF20F53001514120DE
:104D3000C0002018C188FF20F93001514120C00077
:104D4000005DC006C00E002804D0012809D002284A
:104D500015D10DE04120C0002118204600F032FBA3
:104D600017E04120C0002118204600F064FB10E04D
:104D70004120C0002118204600F086FB09E04120B8
:104D8000C000005D802210400146204600F017FE62
:104D900000BF00BF002070BDF8B505460E4617469F
:104DA000002E30D1EC1DFD34FF20F5304059032892
:104DB0003BD1E168A068884210D9E168A068401A38
:104DC000A060E168A068884201D2A06800E0E068C5
:104DD00082B23946284600F086FC26E08520800015
:104DE0004059006900280AD0FF20FD30405D0328AB
:104DF00005D185208000405901692846884728460A
:104E000000F07DFC11E08520800040598069002879
:104E10000BD0FF20FD30405D032806D185208000A7
:104E2000405931468269284690470020F8BDF8B5C0
:104E300004460E461746002E5CD125461435FF2049
:104E4000F5300059022848D1E968A868884210D98D
:104E5000E968A868401AA860288982B239462046C5
:104E600000F020FC00231A461946204600F0F3FD0E
:104E700033E0E968686802F079FB002919D1E96834
:104E80006868884215D3FF20F9300059696881426B
:104E90000FD200221146204600F004FC0021FF2022
:104EA000F930015100231A461946204600F0D3FD7F
:104EB00013E0852080000059C06800280AD0FF2038
:104EC000FD30005D032805D1852080000059C168B0
:104ED00020468847204600F020FC01204002005D6B
:104EE000012819D12046FFF7F1FE002101204002E0
:104EF000015511E0852080000059406900280BD041
:104F0000FF20FD30005D032806D185208000005978
:104F100031464269204690470020F8BD10B504464E
:104F2000202300221146204600F024FD2021FF20EE
:104F300011300151202300228021204600F01AFD6B
:104F4000202121620121FF20FD3001554320C000B6
:104F50000059002806D02179852080000059426838
:104F600020469047002010BD024611740020704773
:104F70000146FF20FD30425C401C42540422401E8A
:104F80004254002070470146FF20FE30425C401E24
:104F900042540020704710B50446FF20FD30005DEC
:104FA00003280BD1852080000059C069002805D056
:104FB000852080000059C16920468847002010BD27
:104FC000024600207047024600207047014600203C
:104FD000704710B504460121FF20FD3001552179AD
:104FE000852080000059426820469047002010BD6F
:104FF00070B504460D468021204600F0E0FC0021FB
:10500000204600F0DCFC70BD70B504460D46FF2064
:10501000FD30005D022802D0032813D100E000BF5C
:10502000688801280DD10021812080000151852050
:10503000800000592946826820469047204600F0AB
:105040005EFB04E029462046FFF7D2FF00BF00BF09
:1050500070BD70B504460D46688801280DD1012148
:1050600081208000015185208000005929468268F6
:1050700020469047204600F042FB70BD70B50446C4
:105080000D46FF20FD30005D022802D0032813D119
:1050900000E000BF0120E06081208000005900286E
:1050A00003D00221E0680843E060022221460C316F
:1050B000204600F0E5FA04E029462046FFF798FF75
:1050C00000BF00BF70BD70B504460D46E8880128DA
:1050D00004D029462046FFF78BFF1CE0FF20FD305F
:1050E000005D022802D003280FD108E00020A06054
:1050F000012221460831204600F0C2FA0AE00122CE
:10510000211D204600F0BCFA04E029462046FFF7A6
:105110006FFF00BF00BF70BD70B504460D46A87894
:10512000FA49087008460078012804DD294620461F
:10513000FFF75EFF60E0FF20FD30005D022802D037
:10514000032853D11EE0F1480078002816D0EF481C
:10515000007860600321FF20FD300155EB480178A5
:105160002046FFF7B6FD022804D129462046FFF766
:105170003FFF70BD204600F0C2FA02E0204600F07A
:10518000BEFA38E0E148007800280FD10221FF2064
:10519000FD300155DD4800786060DC48017820462C
:1051A000FFF7ACFD204600F0AAFA1EE0D7490978C7
:1051B0006068884216D021792046FFF79FFDD348CA
:1051C00000786060D14801782046FFF782FD022810
:1051D00004D129462046FFF70BFFCAE7204600F01E
:1051E0008EFA02E0204600F08AFA04E029462046C2
:1051F000FFF7FEFE00BF00BF00BFBAE770B5044670
:105200000D46A888002825D1E888002822D1A87852
:105210004606760EFF20FD30005D032804D12946A6
:105220002046FFF7E5FE19E0FF20FF300655314626
:10523000204600F0F6FB204600F061FA002E04D074
:105240000221FF20FD30015508E00121FF20FD3043
:10525000015503E029462046FFF7CAFE70BDF8B5A8
:1052600004460E4670880012030002F00AFA088C09
:10527000050E258C8C6A7A8C207C21210901095924
:105280000A6869469047054682E0207C002809D1DB
:10529000852080000059816A6846884705460221BA
:1052A000697008E0852080000059C16A6846884717
:1052B0000546022169706BE0B078030002F0E1F965
:1052C00006040D161F28313A207C212109010959B5
:1052D0004A6869469047054631E0207C2121090152
:1052E00009598A6869469047054628E0207C2121B3
:1052F00009010959CA686946904705461FE0207CA4
:105300002121090109590A6969469047054616E0B5
:10531000207C2121090109594A69694690470546BF
:105320000DE0207C2121090109598A6969469047CD
:10533000054604E031462046FFF75AFEF8BD00BF9F
:1053400026E0207C002807D1852080000059416B91
:105350006846884705461BE031462046FFF748FE71
:10536000ECE7207C002809D1852080000059016BE2
:105370006846884705460721697009E0314620469E
:10538000FFF736FEDAE731462046FFF731FED5E774
:1053900000BF68460088002812D0F08800280FD08F
:1053A000F08869460988884202DD6846008800E086
:1053B000F088009069460A882946204600F060F986
:1053C00000BFBBE770B505460C46002660780300B9
:1053D00002F057F90A1A24291F290B06291510294A
:1053E00021462846FFF73BFF22E021462846FFF7EB
:1053F00005FF1DE021462846FFF78EFE18E02146F6
:105400002846FFF760FE13E021462846FFF736FEE8
:105410000EE021462846FFF71CFE09E021462846FB
:10542000FFF7F2FD04E021462846FFF7E1FD00BF4B
:1054300000BF304670BD70B504460D460026FF2003
:10544000FD30005D032817D1287901280FDC852065
:10545000800000592946826820469047E888002845
:1054600009D1002E07D1204600F049F903E0294672
:105470002046FFF7BDFD04E029462046FFF7B8FDB2
:1054800000BF00BF002070BDF8B505460E460020E5
:1054900000903479307860210840202808D1852098
:1054A0008000405931468268284690470020F8BD68
:1054B0007078002861D0012831D0032878D1FF20EE
:1054C000FD30405D022802D0032821D108E0002CE5
:1054D00005D0802C03D02146284600F070FA1CE04D
:1054E0007088002807D1002C05D0802C03D02146DD
:1054F000284600F064FA85208000405931468268D1
:1055000028469047284600F0FAF806E0C900002037
:1055100031462846FFF76CFD00BF00BF68E0FF2062
:10552000FD30405D022802D003281FD108E0002C86
:1055300005D0802C03D02146284600F040FA1AE01E
:105540007088002811D16006400E00280AD021463C
:10555000284600F03FFA8520800040593146826895
:1055600028469047284600F0CAF804E0314628460D
:10557000FFF73EFD00BF00BF3AE0FF20FD30405D79
:10558000022802D003282BD108E06006400E002834
:1055900003D02146284600F012FA26E08020204061
:1055A000802806D16006410D28461430081805E011
:1055B0001DE06006410DE81DFD3008180746214634
:1055C000284600F012FA002802D00120386001E0DD
:1055D0000020386002223946284600F051F804E0E5
:1055E00031462846FFF704FD00BF00BF00E000BFC2
:1055F00000BF00985BE70A7802704A7842708B78A7
:10560000CA7812029A1842800B794A7912029A18C3
:1056100082808B79CA7912029A18C280704701463B
:10562000002002E0421CD0B2491C0A78002AF9D1BD
:105630007047F8B504460D4617460026002C1ED0CC
:105640002046FFF7ECFF4000801C38803A78304657
:10565000711CCEB22A5403223046711CCEB22A5499
:105660000AE022783046711CCEB22A54641C002213
:105670003046711CCEB22A5420780028F1D1F8BDF2
:1056800070B504460E4615460221FF20F530015143
:10569000A561E5612B4632460021204600F0CCF999
:1056A000002070BD70B506460C4615462B462246B6
:1056B0000021304600F0C0F9002070BD70B50446EE
:1056C0000E4615460321FF20F5300151FF20093019
:1056D0000551001D05512B4632460021204600F0A1
:1056E000BAF9002070BD70B506460C4615462B462B
:1056F00022460021304600F0AEF9002070BD10B502
:1057000004460421FF20F530015100231A461946B2
:10571000204600F091F9002010BD10B50446052187
:10572000FF20F530015100231A461946204600F0AB
:1057300092F9002010BD70B504460D46294620465A
:1057400000F098F980B270BD10B586B0044600BF75
:10575000DC48C06A01210843DA49C8620846C06AC9
:10576000C007C00F009000BF00BF0320C00201901F
:105770000220029000200390032004900020059056
:1057800001A905200007FAF747FFCE48806B0121E9
:10579000C9050843CB498863002203211F20FAF77B
:1057A00060FE1F20FAF766FE06B010BD10B5044675
:1057B000C448806B0121C9058843C24988630846F3
:1057C000806A0121C9050843BE4988620846806A8B
:1057D0000121C9058843BB498862C9140520000717
:1057E000FBF701F80121090305200007FAF7FBFF89
:1057F0001F20FAF748FE10BD10B504468B21890022
:1058000008592146FF31ED31FFF784FA10BD70B51C
:1058100004460D461C2169432346FF330933C9184A
:105820000A698B21890008592946FFF7B5FA70BD2E
:1058300070B504460D461C21694323462833C91818
:105840000A698B21890008592946FFF7F0FA70BDD3
:1058500010B504468B2189000859FFF79CFB10BD49
:1058600010B504468B21890008590121FFF77CFB04
:105870008B2189000859FFF751FB10BD7047704715
:1058800070B504460D468B21890008592946FFF75B
:105890009AFB70BD70B504460D468B2189000859EE
:1058A0002946FFF78DFB70BD10B504468B2189009A
:1058B0000859FFF78BFB10BD10B504468B218900FA
:1058C0000859FFF786FB10BD10B504467E487F4996
:1058D00008600820486040217C48C16002210161C5
:1058E0008160012181617A48C462784911204001B8
:1058F000015101460859FBF73EF8112149010859A9
:10590000202300221146FCF7B3FB1121490108595D
:10591000402300228021FCF7ABFB112149010859EB
:10592000602300220121FCF7A3FB11214901085942
:10593000802300228121FCF79BFB002010BD10B5C5
:105940000446112149010859FBF7B8F8002010BDA1
:1059500010B50446112149010859FBF7C5F800208C
:1059600010BD10B50446112149010859FBF785F80F
:10597000002010BDF8B504460F4615461E461121FD
:10598000490108592B4632463946FBF7B4FE002040
:10599000F8BD70B504460D46112149010859294644
:1059A000FCF7CFF8002070BD70B504460D461121FC
:1059B000490108592946FCF71EFB002070BD70B54F
:1059C00004460D461121490108592946FCF70EFAF3
:1059D000002070BD70B504460D46112149010859DB
:1059E0002946FCF77AFA002070BD10B50246112056
:1059F0004001835880200840802808D14806400E86
:105A00001C2460431C4628340019807810BD4806C9
:105A1000400E1C2460431C46FF3409340019807872
:105A2000F4E770B504460D4611214901085929468D
:105A3000FBF769F8002070BDF8B504460D46164620
:105A40001F461121490108593B4632462946FBF7BA
:105A500094F80020F8BDF8B504460D4616461F46DA
:105A60001121490108593B4632462946FBF7A4F962
:105A70000020F8BD70B504460D46112149010859B2
:105A80002946FCF7A0F970BD10B504462046FAF788
:105A900024FC10BD01460F487047704700B593B015
:105AA000222000900120039006906846FCF7A6FD96
:105AB00001200E900F9000210EA8FDF771F913B090
:105AC00000BD000000100240005C004054010020B6
:105AD000540300208403002002461220088034482A
